:020000040800F2
:10000000C01900204501000819120008CD0F000892
:100010001512000847040008512D000800000000D8
:10002000000000000000000000000000ED2A0008B1
:100030003D0A000800000000C9120008D92B000882
:100040005F0100085F0100085F0100085F01000810
:100050005F0100085F010008410A00085F01000815
:100060005F0100085F0100085F0100085F010008F0
:100070005F0100085F0100085F0100085F010008E0
:100080005F0100085F0100085F0100085F010008D0
:100090005F0100085F0100085F0100085F010008C0
:1000A0005F0100085F0100085F0100085F010008B0
:1000B0005F0100085F0100085F0100085F010008A0
:1000C0005F0100085F0100085F0100085F01000890
:1000D0005F0100085F0100085F0100085F01000880
:1000E0005F0100085F0100085F0100085F01000870
:1000F0005F0100085F0100085F0100085F01000860
:100100005F0100085F0100085F0100085F0100084F
:100110005F0100085F0100085F0100085F0100083F
:100120005F0100085F0100085F0100085F0100082F
:10013000DFF80CD000F02EF8004800478D4300088F
:10014000C01900200648804706480047FEE7FEE742
:10015000FEE7FEE7FEE7FEE7FEE7FEE7FEE7FEE777
:10016000DD2B00083101000830B50B4601460020A8
:100170002022012409E021FA02F59D4205D303FA69
:1001800002F5491B04FA02F52844151EA2F10102EA
:10019000F1DC30BD064C074D06E0E06840F001039D
:1001A00094E8070098471034AC42F6D3FFF7C4FF39
:1001B000104A0008304A000821B1826842F001026A
:1001C000826003E0826822F001028260704721B100
:1001D000826842F48072826003E0826822F4807256
:1001E0008260704708B50120ADF8000000208DF84E
:1001F00003006946374800F0D5FD0121084601F0AB
:1002000071F8354800F0DCFA344835490860354863
:100210004860002088600120C860002008614861B3
:100220004FF4807088618000C8612020086200025D
:10023000486200208862284800F07EFB01212648A1
:1002400000F0B2FA4FF4404001F040F801214FF4C1
:10025000047001F057F8002023490860012008715C
:1002600048714FF4602088600020C8600120087445
:100270001A484C3800F04EF8052301220D2117488A
:100280004C3800F06FF8012114484C38FFF79FFFFD
:10029000012112484C38FFF78FFF10484C3800F00E
:1002A000BDF800BF0D484C3800F02AF80028F9D1FD
:1002B0000A484C3800F0C2F800BF08484C3800F03B
:1002C00015F80028F9D1012104484C3800F0ABF8AA
:1002D00008BD000000100140080002404C2401400D
:1002E000CC14002008000020B81400200146002093
:1002F0008A6802F004020AB1012000E00020704781
:10030000014600208A6802F008020AB1012000E0DC
:100310000020704730B502460020002350680F4C83
:1003200020400D790C6844EA052420435060906811
:100330000B4C2040D1E902542C434D7944EA45044A
:1003400020439060D06A20F470000C7C641EE4B2FC
:10035000234340EA0350D06230BD0000FFFEF0FFAF
:10036000FDF7F1FFF0B504460D4600200021092DF0
:1003700011DDE068A5F10A0606EB4607072606FA36
:1003800007F18843A5F10A0606EB460603FA06F1D3
:100390000843E0600CE0206905EB4507072606FAF4
:1003A00007F1884305EB450603FA06F1084320618F
:1003B000072A0FDA606B561E06EB86071F2606FA21
:1003C00007F18843561E06EB860605FA06F1084338
:1003D000606322E00D2A0FDA206BD61F06EB86073A
:1003E0001F2606FA07F18843D61F06EB860605FA94
:1003F00006F10843206310E0E06AA2F10D0606EB67
:1004000086071F2606FA07F18843A2F10D0606EBC0
:10041000860605FA06F10843E062F0BD816841F006
:1004200008018160704721B1826842F4A0028260B5
:1004300003E0826822F4A00282607047816841F084
:1004400004018160704700BFFEE7000008B501218C
:10045000052000F057FF0121880300F053FF18200A
:100460008DF803004FF40070ADF8000003208DF804
:10047000020069460F4800F095FC04208DF8030047
:100480000002ADF8000069460A4800F08BFC4FF40A
:10049000E1300949086000208880C880088188818F
:1004A0000C204881054802F0E3FB0121034802F0DB
:1004B000C5FB08BD00080140F814002000380140C9
:1004C00070B52A2542F2107400E0641E24B1802029
:1004D00001F08EF80028F8D014B90325284670BD25
:1004E00040F2FF5001F042F82846F8E72DE9F041CC
:1004F00006462A274848456B01E04748456B05F00A
:1005000045000028F9D005F0040030B1032704208D
:1005100001F02CF83846BDE8F08105F0010028B163
:100520000127012001F022F83846F4E701F05AF8DB
:10053000B04202D010273846EDE740F2FF5001F0FC
:1005400015F8002001F068F804463448204008B946
:100550003846E0E704F0004008B11C20DBE704F077
:10056000804008B10920D6E704F0005008B10A2005
:10057000D1E704F0805008B10B20CCE704F0006014
:1005800008B10C20C7E704F0806008B10D20C2E775
:1005900004F0807008B10E20BDE704F4000008B13B
:1005A0000F20B8E704F4800008B11020B3E704F48A
:1005B000001008B11120AEE704F4801008B1122039
:1005C000A9E704F4002008B11320A4E704F4802074
:1005D00008B114209FE704F4003008B115209AE711
:1005E00004F4803008B1162095E704F4004008B107
:1005F000172090E704F4804008B118208BE704F43A
:10060000005008B1192086E704F0080008B11A204C
:1006100081E738467FE700000080014008E0FFFDE9
:1006200070B52A251048446B01E00F48446B04F074
:1006300045000028F9D004F0040028B10325042067
:1006400000F094FF284670BD04F0010028B1012598
:10065000012000F08BFF2846F5E740F2FF5000F044
:1006600085FF2846EFE700000080014070B52A258D
:100670000B48446B01E00A48446B04F04500002835
:10068000F9D004F0040028B10325042000F06EFF27
:10069000284670BD40F2FF5000F068FF2846F8E79A
:1006A000008001402DE9F04106460F464FF02A0830
:1006B0002248456B01E02148456B05F045000028C4
:1006C000F9D005F0040038B14FF00308042000F021
:1006D0004DFF4046BDE8F08105F0010030B14FF01C
:1006E0000108012000F042FF4046F3E700F07AFFE6
:1006F000B04203D04FF010084046EBE740F2FF5005
:1007000000F034FF002000F087FF044604F460404E
:1007100018B9200C38804046DCE704F4005008B1DA
:100720001320D7E704F4804008B11020D2E704F486
:10073000004008B10F20CDE74046CBE700800140E4
:1007400070B52A2642F210750F48446B02E06D1E08
:100750000D48446B04F0450008B9002DF7D115B1E0
:1007600004F0040028B10326042000F0FFFE304608
:1007700070BD04F0400028B12A26402000F0F6FEAB
:100780003046F5E73046F3E70080014000F0805145
:1007900011B10349086001E0024948607047000058
:1007A000040402400000024021B1026842F001024C
:1007B000026004E002684FF6FE731A400260704760
:1007C00001684FF6FE721140016000210160416036
:1007D0008160C1604B49884208D14A49083949685B
:1007E00041F00F01474A083A51608AE04549143107
:1007F000884208D143490839496841F0F001414A2B
:10080000083A51607DE03F492831884208D13D498E
:100810000839496841F470613A4A083A516070E019
:1008200038493C31884208D136490839496841F491
:100830007041344A083A516063E03249503188428D
:1008400008D130490839496841F470212D4A083AE5
:10085000516056E02B496431884208D12949083952
:10086000496841F47001274A083A516049E0254936
:100870007831884208D123490839496841F07061CC
:10088000204A083A51603CE01F49884206D1011FC6
:10089000096841F00F01021F116032E01A4914315A
:1008A000884208D11849091F096841F0F001164A29
:1008B000121F116025E014492831884208D11249DD
:1008C000091F096841F470610F4A121F116018E096
:1008D0000D493C31884208D10B49091F096841F490
:1008E0007041094A121F11600BE0074950318842DC
:1008F00007D10549091F096841F47021024A121FF6
:1009000011607047080002400804024001460020C0
:10091000002201F0805313B1054B1A6801E0054B2A
:100920001A6802EA01030BB1012000E000207047C1
:10093000000402400000024010B50022026847F6A1
:10094000F0739A430C6A8B6823430C6923434C6908
:1009500023438C692343CC6923434C6A23438C6A29
:1009600023431A430260CB6843600B6883604B6883
:10097000C36010BD30B58BB005460C461348FFF779
:1009800005FF00211248FFF70FFF12480090019564
:1009900000200290A0080390002004908020059081
:1009A0008000069080000790002008904FF40050CF
:1009B000099000200A9069460548FFF7BDFF012114
:1009C0000348FFF7F1FE0BB030BD000000F000104F
:1009D000440402408080014030B58BB005460C468F
:1009E0001348FFF7D3FE00211248FFF7DDFE12483F
:1009F0000090019510200290A00803900020049020
:100A000080200590800006908000079000200890CC
:100A10004FF40050099000200A9069460548FFF7FE
:100A20008BFF01210348FFF7BFFE0BB030BD000074
:100A300000F0001044040240808001407047000034
:100A400010B5012000F01CF838B1012003490880DE
:100A500000F010F802A002F07DF910BD1000002097
:100A60005265636F7264696E672E2E2E2E2E2E2EA7
:100A70000A000000014908607047000014040140AA
:100A8000014600200022074B1B6803EA0102054BC8
:100A900014331B680B4013B10AB1012000E00020A1
:100AA0007047000000040140002123498279002A98
:100AB0003AD00A46126803689A430B461A600A1D28
:100AC000126803689A430B1D1A60027911440A6880
:100AD00003681A430A60184A0832126803689A4386
:100AE000154B08331A601A1D126803689A43124B9B
:100AF0000C331A604279102A0ED11A1F126803684B
:100B00001A430D4B08331A601A1D126803681A4302
:100B1000094B0C331A600DE00749427911440A6809
:100B200003681A430A6005E0027911440A68036801
:100B30009A430A6070470000000401400EB501218D
:100B4000092000F0DFFB00F068FB0120ADF8080091
:100B500028208DF80B0002A90A4800F023F9002193
:100B6000084600F0FFF80120009000208DF80400F6
:100B70000C208DF8050001208DF806006846FFF76F
:100B800093FF0EBD000801402DE9FC4107460D46CC
:100B900000262A2400200090019008205C4908606B
:100BA00010204860402088600020C8604FF48060BA
:100BB0000861084600F06AFD1020FFF797FC044624
:100BC0002A2C02D02046BDE8FC815248008800044F
:100BD0004F49086037204860402088600020C86086
:100BE0004FF480600861084600F050FD3720FFF7A1
:100BF0007DFC04462A2C01D02046E4E746484749BC
:100C0000086008204860302088600220C86000200A
:100C1000086101204861084600F0BAFC00203C4908
:100C2000086033204860402088600020C8604FF48E
:100C300080600861084600F029FD3320FFF756FC6C
:100C400004462A2C01D02046BDE709E04FF40010ED
:100C500000F0CEFC20B100F013FD4DF82600761C0C
:100C60002F48406B40F22A6108400028EED008204F
:100C700000F0BEFC28B1082000F078FC04242046D7
:100C8000A1E7022000F0B4FC28B1022000F06EFCC5
:100C90000224204697E7202000F0AAFC28B120205B
:100CA00000F064FC062420468DE74FF4007000F04D
:100CB0009FFC30B14FF4007000F058FC0724204630
:100CC00081E740F2FF5000F051FC009800060099C7
:100CD00001F47F4140EA0120009901F47F0140EADC
:100CE0001120009940EA116068600198000601999E
:100CF00001F47F4140EA0120019901F47F0140EABB
:100D00001120019940EA1160286020465BE700004D
:100D10004015002020000020FFFF0F005415002088
:100D20000080014008B50121302000F0EBFA4FF4BB
:100D3000F850ADF8000003208DF8020018208DF85F
:100D400003006946054800F02DF80420ADF80000C6
:100D50006946034800F026F808BD00000010014075
:100D60000014014030B500228B071C0F0F2303FA3B
:100D700004F20B4B8C1053F824309343084C8D1025
:100D800044F8253023468C1053F824308C07240F68
:100D900000FA04F42343024C8D1044F8253030BD92
:100DA000080001402DE9F041024600250026002000
:100DB00000230024002791F803C00CF00F0591F8E0
:100DC00003C00CF0100CBCF1000F03D091F802C06E
:100DD0004CEA050591F800C0BCF1000F31D0146851
:100DE00000202BE04FF0010C0CFA00F3B1F800C02A
:100DF0000CEA03069E4220D183004FF00F0C0CFA40
:100E000003F7BC4305FA03FC4CEA040491F803C061
:100E1000BCF1280F06D14FF0010C0CFA00FCC2F80F
:100E200014C00AE091F803C0BCF1480F05D14FF09F
:100E3000010C0CFA00FCC2F810C0401C0828D1D3E9
:100E40001460B1F800C0BCF1FF0F34DD546800201D
:100E50002EE000F1080C4FF0010808FA0CF3B1F88D
:100E600000C00CEA03069E4221D183004FF00F0C14
:100E70000CFA03F7BC4305FA03FC4CEA040491F8AE
:100E800003C0BCF1280F05D100F1080C08FA0CF8DA
:100E9000C2F8148091F803C0BCF1480F07D100F1EB
:100EA000080C4FF0010808FA0CF8C2F81080401C3A
:100EB0000828CED35460BDE8F08102460020936834
:100EC0000B400BB1012000E00020704741617047EA
:100ED0000161704708B50121802000F013FA3F201E
:100EE000ADF8000003208DF8020010208DF80300FB
:100EF00069463248FFF756FF0121102000F002FA40
:100F00004FF47070ADF8000003208DF8020010203F
:100F10008DF8030069462948FFF744FF4FF47071CC
:100F20002648FFF7D5FF0320ADF800008DF802003A
:100F300010208DF8030069462148FFF733FF012197
:100F4000342000F0DFF940F20110ADF80000482035
:100F50008DF8030069461B48FFF724FF4FF400504B
:100F6000ADF8000048208DF8030069461448FFF7EB
:100F700019FF0820ADF8000048208DF803006946ED
:100F80001148FFF70FFF0121302000F0BBF94FF4AB
:100F9000F850ADF8000003208DF8020018208DF8FD
:100FA000030069460648FFF7FDFE0420ADF8000087
:100FB00069460548FFF7F6FE08BD0000001C014029
:100FC00000100140000801400014014000BFFEE78E
:100FD0007CB504462A250020019000905F480088D7
:100FE00000045F4908600D204860402088600020B0
:100FF000C8604FF480600861084600F047FB59481C
:10100000406B009002E05748406B0090009800F061
:1010100045000028F7D0009800F0040028B103250F
:10102000042000F0A3FA28467CBD009800F00100DF
:1010300028B10125012000F099FA2846F4E700F0D4
:10104000D1FA009000980D2802D010252846EBE731
:1010500040F2FF5000F08AFA002000F0DDFA019023
:101060000198C0F3432020703F490198084008B917
:101070002846D9E7019800F0004008B11C20D3E7CA
:10108000019800F0804008B10920CDE7019800F0F8
:10109000005008B10A20C7E7019800F0805008B15D
:1010A0000B20C1E7019800F0006008B10C20BBE7FD
:1010B000019800F0806008B10D20B5E7019800F0BC
:1010C000807008B10E20AFE7019800F4000008B16D
:1010D0000F20A9E7019800F4800008B11020A3E7D1
:1010E000019800F4001008B111209DE7019800F468
:1010F000801008B1122097E7019800F4002008B191
:10110000132091E7019800F4802008B114208BE7A8
:10111000019800F4003008B1152085E7019800F42B
:10112000803008B116207FE7019800F4004008B134
:10113000172079E7019800F4804008B1182073E780
:10114000019800F4005008B119206DE7019800F0F3
:10115000080008B11A2067E7284665E7200000204C
:10116000401500200080014008E0FFFD10B5044656
:10117000012C15D0022C0ED0032C06D0042C14D137
:10118000C1010E48FFF7A4FE15E04FF480710B4833
:10119000FFF79EFE0FE080210848FFF799FE0AE066
:1011A00040210648FFF794FE05E04FF470710348B4
:1011B000FFF78EFE00BF00BF10BD0000001C014005
:1011C00010B50446012C15D0022C0ED0032C06D0ED
:1011D000042C14D1C1010E48FFF778FE15E04FF43E
:1011E00080710B48FFF772FE0FE080210848FFF77F
:1011F0006DFE0AE040210648FFF768FE05E04FF467
:1012000070710348FFF764FE00BF00BF10BD00000F
:10121000001C014000BFFEE7704708B54FF4C060F6
:1012200000F048F806208DF8000000208DF801003D
:101230008DF8020001208DF80300684600F002F8E6
:1012400008BD000070B5002100230F22C47804B34C
:10125000154C246804F4E064C4F5E064210AC1F18B
:101260000403CA40447804FA03F18478144021430B
:1012700009010E4C0678A155047804F01F050124DD
:10128000AC4005786D11AD0005F1E025C5F80041D1
:1012900009E0047804F01F050124AC40044D0678F1
:1012A000761145F8264070BD0CED00E000E400E04A
:1012B00080E100E002490143024A116070470000EA
:1012C0000000FA050CED00E0704700000146002028
:1012D000034A506820F440400843506070470000C3
:1012E0000010024029B1064A52690243044B5A6178
:1012F00004E0034A52698243014B5A61704700007F
:101300000010024029B1064A92690243044B9A61D7
:1013100004E0034A92698243014B9A6170470000DE
:101320000010024030B500210022002400232D4D82
:101330006D6805F00C0121B1042905D0082923D1DD
:1013400005E0294D056022E0274D05601FE0254D91
:101350006D6805F47012234D6D6805F48034022524
:1013600005EB92421CB9214D554305600BE01D4D24
:101370006D6805F400351DB11C4D5543056002E054
:10138000194D5543056002E0174D056000BF00BFD1
:10139000144D6D6805F0F0010909154D6B5C056889
:1013A000DD4045600F4D6D6805F4E061090A104DA0
:1013B0006B5C4568DD4085600A4D6D6805F46051E1
:1013C000C90A0B4D6B5C4568DD40C560054D6D6815
:1013D00005F44041890B074D6B5CC568B5FBF3F51F
:1013E000056130BD0010024000127A0000093D0086
:1013F000440000205400002010B508210F48FFF7DA
:101400005CFD08B9012010BD4FF480710C48FFF756
:1014100054FD08B90220F6E74FF400510948FFF7E0
:101420004CFD08B90320EEE701210548FFF745FD13
:1014300008B90420E7E70020E5E7000000140140B8
:1014400000080140001001407CB505462A24002018
:101450000090019000F0E0F800F0007010B10E2450
:1014600020467CBD3F49098888B26946FFF78CFB5E
:1014700004462A2C01D02046F3E7012D38D10198EB
:1014800000F48020002830D0364800880004364917
:10149000086037204860402088600020C860A802AB
:1014A0000861084600F0F2F83720FFF71FF80446FD
:1014B0002A2C01D02046D4E702202B4908600620C0
:1014C0004860402088600020C8604FF48060086158
:1014D000084600F0DBF80620FFF708F804462A2C3F
:1014E00001D02046BDE72046BBE725242046B8E7CB
:1014F000019800F4803078B31A48008800041A4933
:10150000086037204860402088600020C8604FF4A1
:1015100080600861084600F0B9F83720FEF7E6FF62
:1015200004462A2C01D020469BE700200E49086083
:1015300006204860402088600020C8604FF480602A
:101540000861084600F0A2F80620FEF7CFFF044627
:101550002A2C02D0204684E701E0204681E725249A
:1015600020467EE7200000204015002001498863C6
:10157000704700000080014001490860704700008A
:10158000A000304201490860704700008C053042DD
:1015900000210A4B02685A6242689A621A46D16A6E
:1015A00021F0F701D0E902231A4303691A43436982
:1015B0001A431143014AD162704700000080014084
:1015C00000200649086048608860C86048628862F8
:1015D000C862034888630020C863704700800140E8
:1015E000FF07C00001480069C0B270470080014099
:1015F00001460020034A526B0A400AB1012000E074
:1016000000207047008001400248006800F003009D
:10161000704700000080014008B50146002000909E
:101620000248084400900098006808BD14800140FA
:1016300029B1064AD26B0243044BDA6304E0034A41
:10164000D26B8243014BDA63704700000080014097
:1016500000210A4A516847F6FF629143027D836880
:101660001A4343681A43C3681A4303681A43036959
:101670001A431143014A5160704700000080014045
:101680000148006870470000808001400021094B3C
:1016900002689A601A46D1686FF30A01D0E9012303
:1016A0001A43C3681A4303691A431143014AD160BC
:1016B00070470000008001400549096821F00301DE
:1016C000034A116011460968014311607047000028
:1016D000008001400149086070470000808001409F
:1016E00070B504462A2522480068032802D1272520
:1016F000284670BD1E48006838B11D4800680128A2
:1017000003D01B480068022830D1B4F5805F02D1B5
:1017100027252846EDE7B4F5006F15D10120FFF726
:1017200093FE05462A2D21D102201249087500207A
:101730000860486088604FF40060C860002008615D
:101740000846FFF785FF11E00020FFF77DFE054604
:101750002A2D0BD102200749087500200860486037
:101760008860C86008610846FFF772FF2846C0E736
:101770001C0000202815002030B501462A20002238
:10178000AC4B1B7881F84E30AB4B1B88A1F84C302A
:10179000AA4B1B681A0E93090B70C2F383034B709C
:1017A00002F003038B70A54B1B68C3F30742CA709A
:1017B000A24B1B88C3F307220A71A04B1A784A7107
:1017C0005B681A0E1301CB809C4B5B68C3F3074226
:1017D000CB8843EA1213CB8002F00F030B72974BB6
:1017E0009B88C3F30722D3094B72C2F380138B7219
:1017F000C2F34013CB72C2F300130B7300234B737D
:101800008C4B1B681BB18B4B1B68012B3CD1930786
:101810001B0D0B61894B1A790B6943EA82030B613B
:10182000864B9B681A0E0B6943EA92130B61C2F355
:10183000C2030B7502F007034B75804B9B68C3F323
:10184000074253098B75C2F38203CB7593075B0F75
:101850000B767A4B1B89C3F307220B7E43EAD21324
:101860000B760B695B1C4B640C7E4B6CA41C012536
:10187000A5406B434B640C7A0123A3408B64D1E9F0
:10188000113463434B6421E06A4B1B68022B1DD16A
:101890006A4B1A7993069B0A0B61684B9B681A0E78
:1018A0000B6943EA02230B61644B9B68C3F3074255
:1018B0000B6913430B61614B1B89C3F307220B694F
:1018C0005B1CDB044B644FF400738B64C2F3801326
:1018D00001F8193F93065B0E4B70584B1A7A4B7800
:1018E00043EAD2134B7002F07F038B70534BDB68DB
:1018F0001A0ED309CB70C2F341130B71C2F38203EA
:101900004B7193071B0F8B714C4BDB68C3F3074282
:101910008B7943EA92138B71C2F34013CB7100238E
:101920000B7202F001034B72444B9B89C3F30722F5
:10193000D3098B72C2F38013CB72C2F340130B73C3
:10194000C2F300134B73C2F381038B7302F00303E2
:10195000CB733A4B1A7B53080B7401234B74384BEF
:101960001B681A0ECA741939354B1B68C3F307423A
:101970001402CC85324B1B88C3F30722CB8D134353
:10198000CB852F4B1A7814060C635B681A0E0B6B11
:1019900043EA02440C632A4B5B68C3F307420B6BB8
:1019A00043EA02240C63264B9B88C3F307220B6B8C
:1019B00013430B63224B1A7934235A54204B9B68F0
:1019C0001A0E35235A541E4B9B68C3F30742140664
:1019D0008C631B4B1B89C3F307228B6B43EA0244C6
:1019E0008C63174B1A7A8B6B43EA02248C63144B7B
:1019F000DB681A0E8B6B13438B63114BDB68C3F3ED
:101A000007423C235B5C43EA12143C235C541307FB
:101A10001C0DCC870A4B9B89C3F30722CB8F134342
:101A2000CB87074B1A7B540840235C540124412385
:101A30005C5430BD1C000020200000200815002050
:101A40001815002010B52A24FFF76CF9012188022F
:101A5000FFF748FC01210220FFF744FCFFF7B0FD2F
:101A600000F0BCF804462A2C01D0204610BD00F03E
:101A700015F804462A2C01D02046F7E70220064933
:101A800008750020086048608860C86008610846E2
:101A9000FFF7DEFD2046E9E72815002038B52A24A7
:101AA00001200090FFF7B0FD10B92524204638BD75
:101AB00045480068042829D00020444908600220D5
:101AC0004860C02088600020C8604FF480600861D2
:101AD0000846FFF7DBFDFEF7A3FD04462A2C01D0E4
:101AE0002046E4E70020FFF797FD3949086004200D
:101AF000FFF792FD364948600820FFF78DFD344915
:101B000088600C20FFF788FD3149C8602E480068C6
:101B100058B12D480068012807D02B4800680628D6
:101B200003D029480068022817D1002027490860FF
:101B300003204860402088600020C8604FF4806027
:101B400008610846FFF7A2FD69460320FEF7AAFDDB
:101B500004462A2C01D02046A9E71B480068042827
:101B60002FD0BDF800001B490860BDF8000000043C
:101B70001649086009204860C02088600020C860BD
:101B80004FF4806008610846FFF780FDFEF748FDCE
:101B900004462A2C01D0204689E70020FFF73CFDAF
:101BA0000D4908600420FFF737FD0B494860082005
:101BB000FFF732FD084988600C20FFF72DFD06492C
:101BC000C8602A24204672E71C000020401500202F
:101BD0001815002020000020081500202DE9F041F4
:101BE0002A240026002500274FF00008B2205D4976
:101BF000087500200860486088604FF40060C86085
:101C0000002008610846FFF723FD0320FFF754FD7D
:101C10000120FFF7B1FC002053490860486088604C
:101C2000C8604FF4806008610846FFF72FFDFEF79B
:101C300047FC04462A2C02D02046BDE8F0814FF430
:101C4000D57049490860082048604020886000201D
:101C5000C8604FF4806008610846FFF717FDFEF783
:101C60006FFD04462A2C05D10120404908604FF041
:101C7000804812E000203C4908603720486040203E
:101C800088600020C8604FF4806008610846FFF754
:101C9000FDFC3720FEF72AFC04460020324908608C
:101CA00037204860402088600020C8604FF4806082
:101CB00008610846FFF7EAFC3720FEF717FC0446E8
:101CC0002A2C4CD138E00020274908603720486092
:101CD000402088600020C8604FF48060086108469A
:101CE000FFF7D4FC3720FEF701FC04462A2C01D074
:101CF0002046A2E71E4848EA00001B490860292048
:101D00004860402088600020C8604FF4806008610F
:101D10000846FFF7BBFCFEF7A9FC04462A2C01D0BD
:101D200020468AE70020FFF777FC0646012080EA7C
:101D3000D67080F001076D1C1FB94FF6FF70854209
:101D4000C1D34FF6FF70854202D31B24204674E7AF
:101D500006F08040060002D00220044908602046B8
:101D60006BE7000028150020401500201C00002013
:101D7000000010802DE9F04707460D4614464FF04D
:101D80002A084FF000092E464FF0000A25B94FF0FF
:101D900026084046BDE8F0872A20844908700020C4
:101DA00083490860834908608348844908600020AB
:101DB00048608860C860086148610846FFF7E8FB32
:101DC0000020FFF7DFFB0020FFF726FC00F000708B
:101DD00018B14FF00E084046DCE779480068022849
:101DE00001D104027F0A002C21DDB4F5006F1EDC56
:101DF000601E2040D8B9204601F08DFA8246714815
:101E0000046010206F494860402088600020C8604E
:101E10004FF4806008610846FFF738FC1020FEF799
:101E200065FB8046B8F12A0F05D04046B2E74FF077
:101E300026084046AEE760486049086008464460AE
:101E40004FEA0A1088600220C86000200861012063
:101E500048610846FFF79CFB5648046000205A4939
:101E600008605A4805605748076011205549486086
:101E7000402088600020C8604FF4806008610846F8
:101E8000FFF704FC1120FEF731FB8046B8F12A0F62
:101E900001D040467EE74E480068022857D111E045
:101EA0004FF40040FFF7A4FB60B14FF0000905E0DC
:101EB000FFF7E6FB46F8290009F10109B9F1080F1F
:101EC000F6D320364348406B40F22A610840002890
:101ED000E6D00820FFF78CFB30B10820FFF746FB67
:101EE0004FF00408404655E70220FFF781FB30B170
:101EF0000220FFF73BFB4FF0020840464AE7202054
:101F0000FFF776FB30B12020FFF730FB4FF00608DB
:101F100040463FE74FF40070FFF76AFB38B14FF4DB
:101F20000070FFF723FB4FF00708404632E703E05D
:101F3000FFF7A6FB3060361D4FF40010FFF758FB8B
:101F40000028F5D140F2FF50FFF710FB2CE02048AD
:101F50000068012813D101214FF49570FFF768FB49
:101F600000BF1348006818B9104800782A28F8D034
:101F70000E4800782A2817D00C4800780AE7144841
:101F8000006888B9012140F22A30FFF751FB012097
:101F9000FFF7F8FA21462846FEF7ECFC00BF0E4892
:101FA000FEF7B4FC0028FAD04046F3E638000020E3
:101FB0003C00002028000020FFFF0F0054150020E7
:101FC0001C000020401500202C00002034000020C0
:101FD0002400002000800140002000102DE9F05F67
:101FE00081460E4614461D464FF02A084FF0000A5F
:101FF00037464FF0000B26B94FF026084046BDE8A3
:10200000F09F2A20A94908700020A9490860A94921
:102010000860A948A9490860002048608860C86035
:10202000086148610846FFF7B3FA0020FFF7AAFAF3
:102030000020FFF7F1FA00F0007018B14FF00E0821
:102040004046DCE79E480068022802D104024FEABD
:102050005929002C21DDB4F5006F1EDC601E2040E4
:10206000D8B9204601F057F98346964804601020FD
:1020700094494860402088600020C8604FF4806028
:1020800008610846FFF702FB1020FEF72FFA804692
:10209000B8F12A0F05D04046B1E74FF02608404678
:1020A000ADE7012D70D905FB04F0B0F1007F03D33B
:1020B0004FF026084046A2E705FB04F07D49086082
:1020C000012081490860814806607B487B4908609F
:1020D00005FB04F048604FEA0B1088600220C860DE
:1020E00000200861012048610846FFF751FA754851
:1020F000C0F800901220734948604020886000209A
:10210000C8604FF4806008610846FFF7BFFA1220EC
:10211000FEF7ECF98046B8F12A0F01D040466EE791
:102120006B48006802287BD111E04FF40040FFF7B4
:102130005FFA60B14FF0000A05E0FFF7A1FA47F837
:102140002A000AF1010ABAF1080FF6D320376148D4
:10215000406B40F22A3108400028E6D00820FFF703
:1021600047FA30B10820FFF701FA4FF00408404663
:1021700045E70220FFF73CFA38B10220FFF7F6F9F5
:102180004FF0020840463AE78DE02020FFF730FA92
:1021900030B12020FFF7EAF94FF0060840462EE75D
:1021A0004FF40070FFF724FA38B14FF40070FFF7D6
:1021B000DDF94FF00708404621E703E0FFF760FA3A
:1021C00038603F1D4FF40010FFF712FA0028F5D1D8
:1021D0004FF48070FFF70CFA18B33948006838B133
:1021E00037480068022803D035480068012818D114
:1021F0000020344908600C2048604020886000209E
:10220000C8604FF4806008610846FFF73FFA0C2071
:10221000FEF76CF98046B8F12A0F02D04046EEE690
:1022200004E040F2FF50FFF7A1F93CE028480068C5
:10223000012813D1012148F22A30FFF7F9F900BF34
:102240001B48006818B9194800782A28F8D01748A0
:1022500000782A2827D015480078D0E61C48006866
:1022600008BB012140F22A30FFF7E2F90120FFF715
:1022700089F905FB04F13046FEF77CFB00BF1648E8
:10228000FEF744FB0028FAD000BF0948006818B9DF
:10229000064800782A28F8D0044800782A2802D076
:1022A00002480078ABE64046A9E60000380000206E
:1022B0003C00002028000020FFFF0F0054150020E4
:1022C0001C000020401500202C00002034000020BD
:1022D00024000020008001400020001070B504465A
:1022E0002A250A4804600720084948604020886081
:1022F0000020C8604FF4806008610846FFF7C6F907
:102300000720FEF7F3F80546284670BD401500206B
:1023100001462A2019B1012901D0022902D1024A1D
:10232000116000E0262070472400002010B52A2408
:10233000FFF788FB04462A2C03D10D48FFF71CFA4F
:1023400004462A2C06D10A49B1F84C100804FFF7BC
:10235000C5FF04462A2C03D10020FFF7C1F904462B
:102360002A2C03D10220FFF7D3FF0446204610BDDC
:102370006C1500202DE9FF5F82460F4614462A2582
:102380000020039002908346002601908046009032
:10239000B94627B92625284604B0BDE8F09F2A2073
:1023A000C64908700020C6490860C6490860C6488A
:1023B000C6490860002048608860C86008614861BC
:1023C0000846FFF7E5F80020FFF7DCF80020FFF7EC
:1023D00023F900F0007010B10E252846DCE7BC4858
:1023E0000068022802D104024FEA5A2A002C20DD9C
:1023F000B4F5006F1DDC601E2040D0B9204600F00F
:102400008AFF0390B34804601020B249486040201E
:1024100088600020C8604FF4806008610846FFF7BC
:1024200035F91020FEF762F805462A2D04D028461B
:10243000B2E726252846AFE7A74800880004A5494B
:1024400008600D204860402088600020C8604FF47C
:10245000806008610846FFF719F90D20FEF746F87D
:1024600005462A2D01D0284696E70020FFF7D4F82C
:102470000190DFF854B21EE0ABF1010B96480088E2
:102480000004944908600D204860402088600020C6
:10249000C8604FF4806008610846FFF7F7F80D2028
:1024A000FEF724F805462A2D01D0284674E70020BF
:1024B000FFF7B2F80190019800F4807010B9BBF1F9
:1024C000000FD9D1BBF1000F01D1292064E7814869
:1024D000C0F800A018207F49486040208860002094
:1024E000C8604FF4806008610846FFF7CFF81820F5
:1024F000FDF7FCFF05462A2D01D028464CE7714820
:102500000460002075490860754807606E486F498F
:102510000860084644600398000188600020C86095
:102520000861012048610846FFF732F86D480068ED
:1025300002286BD139E04FF48040FFF759F8A0B37F
:1025400060480068801B202820D25E480078801BED
:1025500000F0030020B95B480068801B800804E09D
:1025600058480068801B8008401C00904FF000080D
:1025700008E0D9F80000FFF7ADF808F1010809F10B
:102580000409361D009880450FD2F2E74FF000088D
:1025900005E059F82800FFF79DF808F10108B8F1A7
:1025A000080FF6D309F1200920364F48406B40F25E
:1025B0001A6108400028BED00820FFF719F828B19A
:1025C0000820FEF7D3FF04252846E5E60220FFF7A2
:1025D0000FF828B10220FEF7C9FF02252846DBE6E6
:1025E0001020FFF705F828B11020FEF7BFFF0525E2
:1025F0002846D1E64FF40070FEF7FAFFF0B34FF42F
:102600000070FEF7B3FF07252846C5E63548006889
:10261000012813D1012144F21A30FFF709F800BF55
:102620002748006818B9254800782A28F8D0234898
:1026300000782A2828D021480078ADE6294800688B
:10264000E0B9012140F21A30FEF7F2FF2146384688
:10265000FEF7C2F90120FEF795FF00BF2348FEF701
:1026600055F90028FAD000BF1548006818B913487A
:1026700000782A28F8D01148007800E004E02A28E1
:1026800002D00E48007887E640F2FF50FEF76EFF5A
:1026900002A8FEF79DFC054603E002A8FEF798FCA1
:1026A00005462A2D07D19DF808000728F5D09DF88A
:1026B00008000628F1D028466EE600003800002009
:1026C0003C00002028000020FFFF0F0054150020D0
:1026D0001C00002040150020200000202C000020BD
:1026E0003000002024000020008001400020001065
:1026F0002DE9FE4F8346884614461E462A250020B3
:1027000002900190002781460090C246B8F1000F68
:1027100003D126252846BDE8FE8F2A20E649087009
:102720000020E6490860E6490860E648E649086096
:10273000002048608860C860086148610846FEF76C
:1027400027FF0020FEF71EFF0020FEF765FF00F0C8
:10275000007010B10E252846DDE7DC48006802282D
:1027600002D104024FEA5B2B002C20DDB4F5006F90
:102770001DDC601E2040D0B9204600F0CCFD029048
:10278000D34804601020D24948604020886000206F
:10279000C8604FF4806008610846FEF777FF10209C
:1027A000FDF7A4FE05462A2D04D02846B3E72625CA
:1027B0002846B0E7C74800880004C54908600D20D6
:1027C0004860402088600020C8604FF48060086145
:1027D0000846FEF75BFF0D20FDF788FE05462A2D13
:1027E00001D0284697E7012E7AD906FB04F0B0F114
:1027F000007F02D3262528468DE7B448006838B10B
:10280000B2480068012803D0B048006802282FD1E0
:10281000B04800880004AE49086037204860402076
:1028200088600020C8604FF4806008610846FEF7A9
:102830002DFF3720FDF75AFE05462A2D01D02846E8
:1028400069E7A34806601720A149486040208860D6
:102850000020C8604FF4806008610846FEF716FF4C
:102860001720FDF743FE05462A2D01D0284652E7E2
:102870009748C0F800B0192095494860402088600A
:102880000020C8604FF4806008610846FEF7FEFE35
:102890001920FDF72BFE05462A2D01D028463AE7E0
:1028A00006FB04F08649086001208B4908608B48CC
:1028B000C0F8008083488449086006FB04F0486043
:1028C0000298000188600020C8600861012048610A
:1028D0000846FEF75DFE8248006802287ED13AE095
:1028E000D1E04FF48040FEF783FEA0B37448006847
:1028F000C01B20280FD34FF0000905E05AF829002B
:10290000FEF7E8FE09F10109B9F1080FF6D30AF163
:10291000200A20371FE06A480078C01B00F003003F
:1029200020B967480068C01B800804E0644800685C
:10293000C01B8008401C00904FF0000908E0DAF846
:102940000000FEF7C7FE09F101090AF1040A3F1D64
:1029500000988145F3D36348406B40F21A31084038
:102960000028BED00820FEF743FE28B10820FEF75D
:10297000FDFD04252846CEE60220FEF739FE28B1EB
:102980000220FEF7F3FD02252846C4E61020FEF7DC
:102990002FFE28B11020FEF7E9FD05252846BAE6EE
:1029A0004FF40070FEF724FE30B14FF40070FEF7D4
:1029B000DDFD07252846AEE64FF48070FEF718FED1
:1029C000002860D04148006838B1404800680128BC
:1029D00003D03E480068022855D100E016E00020F0
:1029E0003B4908600C204860402088600020C86097
:1029F0004FF4806008610846FEF748FE0C20FDF7A2
:102A000075FD05462A2D3ED0284684E634480068E8
:102A1000012813D1012144F21A30FEF709FE00BF4C
:102A20002648006818B9244800782A28F8D0224897
:102A300000782A2827D0204800786CE628480068CB
:102A400008BB012140F21A30FEF7F2FD0120FEF72B
:102A500099FD06FB04F14046FDF7BEFF00BF22488A
:102A6000FDF754FF0028FAD000BF1448006818B9D9
:102A7000114800782A28F8D00F4800782A2802D078
:102A80000D48007847E640F2FF50FEF76FFD01A8C1
:102A9000FEF79EFA054603E001A8FEF799FA0546FF
:102AA0002A2D07D19DF804000728F5D09DF80400D1
:102AB0000628F1D028462EE6380000203C000020F1
:102AC00028000020FFFF0F00541500201C000020EC
:102AD00040150020200000202C00002030000020A5
:102AE000240000200080014000200010704710B535
:102AF00000F002F810BD00000CB50020019000901D
:102B00003348006840F480303149086000BF3048E5
:102B1000006800F4003000900198401C019000987B
:102B200018B90198B0F5A06FF1D12948006800F4F8
:102B3000003010B10120009001E0002000900098CA
:102B4000012843D12348006840F010002149086063
:102B50000846006820F0030008600846006840F05E
:102B6000020008601A4840681949486008464068F1
:102B700048600846406840F4806048600846406805
:102B800020F47C1048600846406840F4E810486033
:102B90000846006840F08070086000BF0C4800687C
:102BA00000F000700028F9D00948406820F00300C8
:102BB000074948600846406840F00200486000BF8E
:102BC0000348406800F00C000828F9D10CBD000053
:102BD00000100240002002407047000010B513486A
:102BE000006840F00100114908600846406810493B
:102BF00008400E494860084600680E4908400B49E5
:102C000008600846006820F4802008600846406894
:102C100020F4FE0048604FF41F008860FFF767FF54
:102C20004FF000600449086010BD00000010024031
:102C30000000FFF8FFFFF6FE08ED00E021B18289F9
:102C400042F40052828104E082894DF6FF731A40FB
:102C50008281704702460020B1F5007F00D100BF9D
:102C600013880B400BB1012000E0002070470000EA
:102C70002DE9F04786B005460E460024A24600BF67
:102C8000A1460027B08900B100BF2F462C8A4CF620
:102C9000FF700440F08804432C82AC894EF6F31098
:102CA0000440B08831890843718908430443AC81EA
:102CB000AC8A4FF6FF400440B0890443AC8201A8BF
:102CC000FEF730FB1F48874202D1DDF810A001E07B
:102CD000DDF80CA0A88900F4004040B10AEBCA005E
:102CE00000EB0A1031684900B0FBF1F807E00AEB8D
:102CF000CA0000EB0A1031688900B0FBF1F86420CB
:102D0000B8FBF0F004012009642101FB1089A889B7
:102D100000F4004040B1322000EBC900B0FBF1F0FC
:102D200000F00700044308E0322000EB09106421A2
:102D3000B0FBF1F000F00F0004432C8106B0BDE8B9
:102D4000F087000000380140C1F30802828070471C
:102D500000BFFEE70FB4054B10B503A9044A029863
:102D600000F018F810BC5DF814FB00007D4200086C
:102D70006000002002E008C8121F08C1002AFAD132
:102D800070477047002001E001C1121F002AFBD1EB
:102D9000704700002DE9FF4F89B09B46044600258F
:102DA00006E025280BD05A460B999047641C6D1CF1
:102DB00020780028F5D10DB02846BDE8F08F002717
:102DC000B8460122474900E0074314F8013F203B81
:102DD00002FA03F00842F7D120782E2819D114F80E
:102DE000010F47F004072A280ED06FF02F02207839
:102DF000A0F1300109290CD808EB880102EB410150
:102E000000EB0108641CF2E70A98641C50F8048B7C
:102E10000A9020780028CED0642808D0692806D0EF
:102E200075281ED05A460B9990476D1C58E00A9998
:102E30004FF00A0901C90A91002802DA40422D2107
:102E400002E0390504D52B218DF82010012103E083
:102E5000F90704D02021F7E78A4608AE0DE00021EB
:102E6000FAE70A994FF00A0901C90A91F7E74946BA
:102E7000FDF77AF9303106F8011D0028F7D1ADEBE6
:102E8000060000F12009780701D44FF00108C84579
:102E900002DDA8EB090000E000208046002706E0E4
:102EA00008A85A46C05D0B9990476D1C7F1C57457A
:102EB000F6DB04E030205A460B9990476D1CB8F1C0
:102EC0000001A8F10108F5DC05E016F8010B5A46EF
:102ED0000B9990476D1CB9F10001A9F10109F4DCCF
:102EE000641C65E70928010070B504460D4660784A
:102EF00001232A4604F1300100F09EFC08B10320B2
:102F000070BD94F82E1294F82F0241EA00204AF680
:102F10005521884201D00220F2E794F869000106A9
:102F200094F8680041EA004194F8670041EA002003
:102F300094F86610084320F07F400E49884201D182
:102F40000020DDE794F88500010694F8840041EA4A
:102F5000004194F8830041EA002094F8821008436D
:102F600020F07F400349884201D10020C8E70120BA
:102F7000C6E7000046415400024600E0521C1078AB
:102F800010B110788842F9D1107870472DE9F74FC9
:102F900086B0069800680090009800783038059058
:102FA000059809280AD8009840783A2806D1009850
:102FB000801C009006990098086001E000200590B0
:102FC000059818B10B2009B0BDE8F08FC7490598E6
:102FD00051F82040079804600CB90C20F3E72078E2
:102FE00078B1607800F040FC804608F0010040B9FC
:102FF000089820B108F0040008B10A20E3E7002097
:10300000E1E70020207005986070607800F0FAFB1E
:10301000804608F0010008B10320D4E7089820B1E9
:1030200008F0040008B10A20CDE74FF0000A51462D
:103030002046FFF759FF0546012D13D104F5F77718
:10304000387978B1F87A0106B87A41EA0041787A9D
:1030500041EA0020397A40EA010A51462046FFF74A
:1030600043FF0546032D01D10120ACE70DB10D2032
:10307000A9E73B20015D94F83C0041EA0020B0F54F
:10308000007F01D00D209EE74620015D94F84700A7
:1030900041EA0029B9F1000F0ED194F8570001065A
:1030A00094F8560041EA004194F8550041EA0020A6
:1030B00094F8541040EA0109C4F81C904020065DC1
:1030C000E670012E03D0022E01D00D207BE709FB14
:1030D00006F93D20005D0646A07016B1701E304016
:1030E00008B10D206FE74120015D94F8420041EAEC
:1030F00000202081207A00F00F0008B10D2062E747
:103100004320015D94F8440041EA002004900498B3
:1031100070B994F85300010694F8520041EA004156
:1031200094F8510041EA002094F8501008430490AC
:103130003E20015D94F83F0041EA00200190019893
:1031400008B90D203FE701984844218900EB111090
:103150000390DDE90301814201D20D2033E7DDE96F
:103160000310401AA178B0FBF1FBBBF1000F01D1B5
:103170000D2028E7012540F6F670834500D302258F
:103180004FF6F670834500D303250BF10200A061D2
:1031900003985044A062019850442062032D16D138
:1031A000208908B10D200EE794F85F00010694F81D
:1031B0005E0041EA004194F85D0041EA002094F885
:1031C0005C1008436062A0698000029014E02089CE
:1031D00008B90D20F7E6206A48446062022D02D14A
:1031E000A069400007E0207E00F00100A16901EB2A
:1031F000410100EB51000290E169029800F2FF10DA
:10320000B1EB502F01D20D20DDE64FF0FF302061F1
:103210000020E060032D5CD1607194F8601094F898
:10322000610041EA0020504460616078012304F1AC
:103230003001626900F000FBF0BB94F82E1294F8A4
:103240002F0241EA00204AF65521884241D133201D
:10325000005D01063220005D41EA00413120005D41
:1032600041EA002094F8301008432149884230D1C7
:1032700094F81702010694F8160241EA004194F806
:10328000150241EA002094F81412084319498842B3
:103290001FD194F81F02010694F81E0241EA004172
:1032A00094F81D0241EA002094F81C120843E060E3
:1032B00094F81B02010600E00BE094F81A0241EAC0
:1032C000004194F8190241EA002094F818120843CA
:1032D0002061257008480088401C80B2064908809B
:1032E000E0800020E062207100BF6CE65800002002
:1032F00052526141727241615C0000200246891E97
:103300009069801E884201D8002070479378906AA7
:1033100001FB0300F9E70146002002E04910421CCE
:10332000D0B20129FAD170472DE9F0470446894609
:10333000B9F1000F06D1E76817B1A069B84211D8FA
:1033400001270FE04946204600F0ACFF0646022E5A
:1033500002D20120BDE8F087A069B04201D9304611
:10336000F8E74F463D4600BF6D1CA069A84204D84F
:103370000225BD4201D90020ECE72946204600F095
:1033800091FF064606B909E0701C08B1012E01D173
:103390003046DFE7BD42E7D10020DBE700BF6FF03A
:1033A00070422946204601F047F98046B8F1000FE7
:1033B00008D1B9F1000F05D02A464946204601F050
:1033C0003BF98046B8F1000F09D1E5602069401C47
:1033D00068B12069401E20610120607107E0B8F1EA
:1033E000010F02D14FF0FF3000E0012005462846D2
:1033F000B0E700002DE9F35F8A46DAF8007000E0DC
:103400007F1C38782F28FBD038785C28F8D00098BB
:1034100086690B222021304601F07EF80025A9465E
:10342000AB464FF0080800BF58460BF1010B3C5C5F
:10343000202C03DD2F2C01D05C2C00D134E02E2C6D
:1034400001D0C1450ED3B8F1080F01D12E2C02D006
:103450000620BDE8FC9F4FF008094FF00B08A806B6
:10346000050EE1E7802C03DB45F003050620F0E7BD
:10347000214622A0FFF780FD08B10620E9E7412C94
:1034800004DB5A2C02DC45F0020508E0612C06DB67
:103490007A2C04DC45F00105A4F12000C4B24846B2
:1034A00009F101093454BFE700BF07EB0B00CAF86C
:1034B0000000202C01DC042000E000200446B9F1CB
:1034C000000F01D10620C4E73078E52801D105209E
:1034D0003070B8F1080F01D1A806050E05F0030001
:1034E000012801D144F0100405F00C00042801D19A
:1034F00044F00804F4720020ABE70000222A2B2CD1
:103500003A3B3C3D3E3F5B5D7C7F00004FF0E0215D
:10351000096921F004014FF0E0221161C21700EBAC
:103520005272C2F3C702074B1A701946097801EBB1
:103530004102C2EBC1114FF6FF7202EAC101024A19
:1035400011807047160000201800002001460D4A27
:1035500012884A434FF0E0235A6100229A61012207
:103560001A6100BF4FF0E022106900F001021AB1A9
:1035700000F48032002AF5D000224FF0E0231A61D7
:103580009A617047180000202DE9F041044600219F
:10359000204600F0E9F8054615B12846BDE8F0815F
:1035A00000BF2169206800F0C1FF054605B116E0A3
:1035B000666937780FB9042511E0F07A00F0080049
:1035C00030B90B223046A16900F086FF00B906E051
:1035D0000021204600F006F80546002DE1D000BF8E
:1035E0002846DBE72DE9F04104468846E088401C88
:1035F00086B20EB1206910B90420BDE8F08106F052
:103600000F0000286FD12069401C2061E06828B9B4
:1036100020680089B04266DC0420EEE720688078EC
:10362000401E00EA161000285DD1E168206800F015
:1036300039FE0546012D01D80220DEE7681C08B9D5
:103640000120DAE720688069A84246D8B8F1000F67
:1036500001D10420D1E7E1682068FFF765FE054647
:103660000DB90720C9E7012D01D10220C5E7681C6B
:1036700008B90120C1E70021206800F057FF08B118
:103680000120BAE7216801F130004FF400720021F7
:1036900000F042FF29462068FFF730FE2168C8622B
:1036A000002710E00120216808710021206800F047
:1036B0003DFF08B10120A0E72068C06A401C2168D6
:1036C000C862781CC7B220688078B842EADC2068FB
:1036D000C06AC01B2168C86200BFE5602946206837
:1036E000FFF70CFE2061E6802068303006F00F0105
:1036F00000EB4110606100207FE72DE9F0410446B6
:103700000021204600F030F80546ADB900BF216920
:10371000206800F00BFF054605B10CE060690678F3
:10372000E52E00D006B906E001212046FFF75AFF3A
:103730000546002DEBD000BF9DB92169206800F03F
:10374000F5FE05466DB9676920220021384600F074
:10375000E3FE0B223846A16900F0D1FE012021686A
:1037600008712846BDE8F0812DE9F04104460E4677
:10377000E680A568012D03D020688069A84202D8A0
:103780000220BDE8F0812DB920680078032801D11E
:103790002068456A65B9E56020680089B04201DCAF
:1037A0000220EEE72068406A00EB1610206120E05E
:1037B00020688078070112E02946206800F072FD39
:1037C0000546681C08B90120DBE7022D03D32068F9
:1037D0008069A84201D80220D3E7F01B86B2BE421E
:1037E000EADAE56029462068FFF788FD00EB16104D
:1037F00020612068303006F00F0100EB411060615D
:103800000020BEE770B5054625B1012D0BD0022D75
:103810000DD10AE0FEF78AFD04462A2C01D10020D2
:1038200070BD0120FCE70120FAE70120F8E7012044
:10383000F6E70346002070472DE9F04107460E46A3
:1038400014461D46012D05D160025A023146FEF78D
:1038500091FA06E060022B464FF400723146FEF703
:10386000BDFB0020BDE8F081014621B1012904D053
:10387000022906D103E0002070470020FCE7002069
:10388000FAE700BF00BF0120F6E72DE9F041074647
:103890000E4614461D46012D05D160025A023146DE
:1038A000FEF768FD06E060022B464FF400723146D9
:1038B000FEF71EFF0020BDE8F08170B504462046EB
:1038C00000F029FB05460DB900202060284670BD98
:1038D0002DE9F04704460E46A188206801F082F8E1
:1038E0008246BAF1000F02D05046BDE8F087A079B9
:1038F00000F0800008B10220F7E7E068B04204D28F
:10390000A07900F0020000B9E668D4F808904FF002
:103910000008C4F80880002E77D02068807847021D
:10392000B9F1000F11D0701EB0FBF7F1A9F1010041
:10393000B0FBF7F0814208D3A9F10100791E88435A
:10394000A060A068361A656918E02569ADB9002144
:103950002068FFF7E9FC0546012D05D1A07940F06C
:103960008000A0710220C0E7681C28B9A07940F04F
:103970008000A0710120B8E725616561002D44D069
:1039800029E0A07900F0020038B129462068FFF74D
:10399000CBFC054635B93E461FE02946206800F0BD
:1039A00081FC0546681C28B9A07940F08000A07110
:1039B00001209AE7012D03D920688069A84205D823
:1039C000A07940F08000A07102208EE76561A068B8
:1039D0003844A060F61BBE42D3D800BFA068304474
:1039E000A060C6F3080068B129462068FFF786FC8E
:1039F0008046B8F1000F06D1A07940F08000A07198
:103A0000022072E701E008EB56282089C0F3080085
:103A100050B3A069404527D0A07900F0400090B194
:103A200021684878012304F12401A269FFF72DFFE2
:103A300028B1A07940F08000A071012055E7A0795D
:103A400020F04000A071216848780123424604F12B
:103A50002401FFF7F1FE28B1A07940F08000A071A9
:103A6000012042E7C4F81880D4E90201884205D950
:103A7000A068E060A07940F02000A071504634E7D3
:103A80000246012A01DB0B207047074850F822301C
:103A90000BB10020187009B100200870024840F8EE
:103AA00022100020F0E70000580000202DE9F74325
:103AB0008AB0054616460020286006F01F0626F04C
:103AC000010203A90BA8FFF761FA0746CDF824D03D
:103AD00027B903A80B9900F081FB0746089C0FB992
:103AE00004B9062706F01C00002858D04FB1042F57
:103AF00003D103A8FFF701FE074646F00806089C1D
:103B000009E0E07A00F0110008B1072703E006F0B1
:103B1000040000B10827002F40D106F0080000285B
:103B20003CD000F031FC804684F80E804FEA18212A
:103B3000E1734FEA184121744FEA18616174002063
:103B4000E072207700216177A177E177A17EE07EA6
:103B500041EA0021227D607D42EA002041EA0049DD
:103B60000020A0760021E17620756175012003997F
:103B70000871B9F1000F11D00398D0F82C80494694
:103B8000039800F023FE074647B9A9F10100039905
:103B9000C8604146039800F0C9FC07460EE06FB9C3
:103BA000E07A00F0100008B1042707E006F00200F8
:103BB00020B1E07A00F0010000B1072747B906F014
:103BC000080008B146F020060398C06AE8612C623C
:103BD000F7B9AE71A17EE07E41EA0021227D607DD1
:103BE00042EA002041EA00402861E07F0106A07F10
:103BF00041EA0041607F41EA0020217F0843E860FC
:103C00000020A860A861039828600398C088A88055
:103C100038460DB0BDE8F0830FB42DE9F04F89B000
:103C200014A8089000200646824639E1139810F83F
:103C3000014B139004B938E1252C0AD02046129983
:103C400000F041F982460AF1010008B14FF0010A83
:103C500025E1002007468346139810F8014B139086
:103C6000302C05D10127139810F8014B139006E072
:103C70002D2C04D10227139810F8014B139009E062
:103C80000BEB8B0004EB4000A0F1300B139810F805
:103C9000014B1390302C01DB392CF1DD6C2C01D061
:103CA0004C2C05D147F00407139810F8014B1390E2
:103CB00004B9FAE02546612D04DB7A2D02DCA5F17A
:103CC0002000C5B24F2D52D006DC422D4CD0432DE2
:103CD00040D0442D55D14DE0532D04D0552D4AD020
:103CE000582D4ED14AE00898006801900898001DB0
:103CF00008904FF0000901E009F10109019810F85E
:103D000009000028F8D1002605E02020129900F0D3
:103D1000DAF88246064407F0020020B9484609F165
:103D200001095845F1D31299019800F0DFF8824655
:103D3000064405E02020129900F0C5F882460644AA
:103D4000484609F101095845F4D30AF1010000B1D0
:103D5000B246A4E0089911F8042BD0B20891129948
:103D600000F0B1F882469AE0022007900FE00820A8
:103D700007900CE000BF0A20079008E01020079091
:103D800005E02046129900F09EF8824687E000BFC9
:103D900007F0040028B1089800680899091D0891E7
:103DA0000CE0442D05D1089800680899091D089178
:103DB00004E0089800680899091D08910690442DB0
:103DC00008D1069800F0004020B1069840420690C5
:103DD00047F008074FF0000800BFDDE90601B0FB1F
:103DE000F1F201FB1200C5B2DDE90601B0FBF1F012
:103DF0000690092D06DD782C01D1272000E0072050
:103E00002844C5B205F13000C2B2404608F10108AD
:103E100002A90A54069810B1B8F1100FDDD307F0CB
:103E2000080028B12D22404608F1010802A90A54D1
:103E3000C14607F0010008B1302000E0202005460F
:103E4000002605E02846129900F03DF88246064417
:103E500007F0020020B9484609F101095845F1D39D
:103E600000BFA8F10101884602AA505C129900F037
:103E70002AF882460644B8F1000FF2D105E020206E
:103E8000129900F020F882460644484609F10109DB
:103E90005845F4D30AF1010000B1B24600BF5644C0
:103EA0000AF1010000287FF4C1AE00BF0020089095
:103EB0000AF1010028B9504609B0BDE8F00F5DF8DD
:103EC00014FB3046F8E77CB504460D468DF80040FB
:103ED000012601AB32466946284600F078F8019881
:103EE000B04200D17CBD4FF0FF30FBE770B5044617
:103EF0000E4600250AE020783146FFF7E4FF401C1B
:103F000010B94FF0FF3070BD641C6D1C2078002884
:103F1000F1D12846F7E72DE9F0410446A188206851
:103F200000F060FD0746002F4FD1A07900F020007F
:103F300000284AD0A07900F0400078B12168487884
:103F4000012304F12401A269FFF79FFC10B10120B5
:103F5000BDE8F081A07920F04000A071E1692068FF
:103F600000F0E4FA0746002F2FD1256AE87A40F0E6
:103F70002000E872207B2877A089010A6977E06831
:103F8000010CA977E068010EE977207CA876208AE9
:103F9000010AE9762069000C28752069010E69750F
:103FA00000F0F2F90646AE75310AE975310C297652
:103FB000310E6976A07920F02000A07101202168DF
:103FC0000871206800F07CFC07463846C0E72DE900
:103FD000FF4F83B0044615469B460498019000208D
:103FE000CBF80000A188206800F0FCFC0290029849
:103FF00018B1029807B0BDE8F08FA07900F08000FA
:1040000008B10220F6E7A07900F0020008B9072005
:10401000F0E7E0682844E168884200D20025CDE05E
:104020002089C0F30800002877D120688078401EDE
:10403000A16800EA512000F0FF0ABAF1000F2AD16E
:10404000A06858B9D4F81080B8F1000F0BD1002146
:104050002068FFF769F98046206104E06169206803
:10406000FFF762F98046B8F1000F00D1A9E0B8F17E
:10407000010F05D1A07940F08000A0710220B9E7BE
:1040800008F1010028B9A07940F08000A07101205A
:10409000B0E7C4F81480A07900F0400090B1216826
:1040A0004878012304F12401A269FFF7EEFB28B14F
:1040B000A07940F08000A07101209BE7A07920F05A
:1040C0004000A07161692068FFF718F906462EB913
:1040D000A07940F08000A07102208BE756444FEA9F
:1040E0005529B9F1000F2FD00AEB09002168897812
:1040F000884203D920688078A0EB0A0909F0FF0301
:104100002168487832460199FFF7BFFB30B1A079AA
:1041100040F08000A07101206CE72CE0A069801BBA
:1041200048450ED2A069801B019A02EB40214FF452
:10413000007204F1240000F0E2F9A07920F04000C0
:10414000A0714FEA49272DE0A069B04212D0D4E90E
:10415000020188420ED2216848780123324604F1D8
:104160002401FFF769FB28B1A07940F08000A0711D
:1041700001203FE7A6612089C0F30800C0F5007761
:10418000AF4200D92F462189C1F3080204F124016E
:1041900050183A46019900F0B2F9A07940F0400079
:1041A000A07100BF019838440190A0683844A06015
:1041B000DBF800003844CBF80000ED1B002D7FF445
:1041C0002FAF00BFD4E90201884201D9A068E060A6
:1041D000A07940F02000A07100200BE72DE9F34109
:1041E0000446019800782F2803D0019800785C28B5
:1041F00002D10198401C01900020A0600198007835
:10420000202807D200212046FFF7AEFA06460020FC
:1042100060612FE000BF01A92046FFF7EBF80646DA
:1042200006B126E02046FFF7AFF90646A069C77A37
:1042300046B1042E00D01CE000BF07F0040000B916
:10424000052616E007F0040000B112E06569E87A7F
:1042500000F0100008B905260BE0A97EE87E41EACF
:1042600000212A7D687D42EA002041EA0040A060EA
:10427000D1E700BF3046BDE8FC81000070B50446C0
:104280000D4607480088E1B20548FEF75DFD00BF16
:1042900040210348FEF7DEFC0028F9D0204670BD1F
:1042A000003801402DE9F04105460C46022C02D3AE
:1042B000A869A04202D80120BDE8F0812878012831
:1042C00004D002282CD003285AD13DE0274607EB22
:1042D0005707286A00EB5721284600F027F900B15C
:1042E0004EE0C7F3080105F1300010F801807F1C93
:1042F000286A00EB5721284600F018F900B13FE08A
:10430000C7F3080105F13000405C48EA002804F0DA
:10431000010010B14FEA1810CEE7C8F30B00CBE74D
:10432000286A00EB1421284600F000F900B127E0CC
:1043300040F2FF1000EA440105F130000E18307819
:10434000717840EA0120B7E7286A00EBD4112846CB
:1043500000F0ECF800B113E040F2FF1000EA840135
:1043600005F130000E18F0780006B17840EA0140FF
:10437000717840EA01203178084320F070409BE7D3
:1043800000BF4FF0FF3097E70020704700F08EF835
:1043900001212C48FCF708FA01212B48FBF70CFF00
:1043A00012222AA12D48FFF781FB2D4908700846EB
:1043B000007810B12BA0FEF7CDFC2FA0FEF7CAFCB1
:1043C0003EE031490988642201FB02F0C11700EB8D
:1043D000115109132D4A11802B49098842F210729C
:1043E00001FB02F0C11700EB1151C1F30F31284A54
:1043F000118000F0BDF9FCF7FFFF022802D1012077
:1044000024490880FCF7F8FF012801D122490880DF
:10441000FCF7F2FF03280AD10020204908800F484A
:10442000FFF74BFA1E4801881EA0FEF793FC1748C1
:1044300001883C2000F0AAFA00F0FCF900F0B0F886
:10444000BFE700000800024000240140303A2F720C
:1044500065636F72642E747874000000940200200B
:104460000100002046696C65206F70656E206661F2
:10447000696C65642E000000696E6974206669735A
:1044800069736865642E0000080000200C0000209D
:104490000A0000201200002014000020100000205C
:1044A0000E0000206E6E3D256400000010B5FBF785
:1044B00099FEFCF70FFD4820FFF728F8FBF7C6FF31
:1044C000FCF73CFB0020FFF79DF902490020FFF7B5
:1044D000D7FA10BD64000020F0B503461C460D4617
:1044E000002000BF1600A2F1010207D014F8017BE2
:1044F00015F801CBA7EB0C063000F3D0F0BD70B57A
:1045000003460C4603E014F8015B03F8015B150059
:10451000A2F10102F7D170BD30B5034601E003F806
:10452000011B1400A2F10102F9D130BD2DE9F041C7
:1045300004460D46E66AAE422FD0207908B3607873
:104540000123324604F13001FFF79FF910B1012039
:10455000BDE8F08100202071D4E907100844B04282
:104560000FD9E7780AE0E069064460780123324613
:1045700004F13001FFF789F9781EC7B2012FF2DC90
:1045800000BF55B1607801232A4604F13001FFF7DE
:1045900053F908B10120DBE7E5620020D8E700000D
:1045A00010B50548008830B10121084600F006F832
:1045B0000120FCF705FE10BD12000020062836D2AF
:1045C000DFE800F035030D17212B19B10222194B3A
:1045D0001A6003E00222174B1B1D1A6027E019B175
:1045E0000422144B1A6003E00422124B1B1D1A60B4
:1045F0001DE019B108220F4B1A6003E008220D4B91
:104600001B1D1A6013E019B110220A4B1A6003E057
:104610001022084B1B1D1A6009E019B12022054B1E
:104620001A6003E02022034B1B1D1A6000BF00BF6D
:1046300070470000101C01402DE9F04705460E466A
:104640001746022E02D3A869B04202D84FF00208E2
:104650008AE02878012804D0022841D003287DD19F
:1046600054E0B14609EB5909286A00EB5921284664
:10467000FFF75CFF8046B8F1000F00D071E0C9F38E
:10468000080105F130000C1806F0010020B1F9B264
:10469000207861F31F1000E03846207009F101090D
:1046A00001202871286A00EB59212846FFF73EFFB8
:1046B0008046B8F1000F00D053E0C9F3080105F1BE
:1046C00030000C1806F0010010B1C7F3071005E028
:1046D000207800F0F000C7F303210843207040E089
:1046E000286A00EB16212846FFF720FF8046B8F124
:1046F000000F00D035E040F2FF1000EA460105F15E
:1047000030000C182770380A60702AE0286A00EB25
:10471000D6112846FFF70AFF8046B8F1000F00D0F7
:104720001FE040F2FF1000EA860105F130000C188E
:10473000E0780006A17840EA0140617840EA012073
:104740002178084300F0704007432770380A6070F2
:10475000380CA070380EE07003E0FFE74FF002085D
:1047600000BF00BF012028714046BDE8F08700006F
:1047700010B50F480088C8B10220FCF721FD0D4894
:10478000C168FFF7A5F80C4908700C4802880CA115
:104790000848FFF741FA1420FEF7D8FE0A480088BF
:1047A000401C094908800220FCF7E0FC10BD000015
:1047B0001000002094020020010000200A000020C8
:1047C0002564200A000000000E0000202DE9F041C1
:1047D00004460E46022E02D3A069B04201D8022739
:1047E00025E000271FE031462046FFF75BFD054628
:1047F00005B91BE0012D01D1022717E0681C08B99B
:10480000012713E0002231462046FFF715FF074637
:1048100007B10BE02069401C20B12069401C2061D9
:10482000012060712E46A069B042DCD800BF384636
:10483000BDE8F08110B51E480088002837D01DA0C3
:10484000FEF788FA01210846FFF7B8FE0121022091
:10485000FFF7B4FE00210320FFF7B0FE0121042082
:10486000FFF7ACFE01210520FFF7A8FE0320FCF7AF
:10487000A7FC4FF47A70FEF769FE4FF47A70FEF7EA
:1048800065FE4FF47A70FEF761FE0320FCF76EFCC4
:1048900001210320FFF792FE00210220FFF78EFE88
:1048A00001210420FFF78AFE00200149088010BD85
:1048B000140000200A20494E4A45435400000000DD
:1048C00070B5044600212046FFF730FE0546002D56
:1048D00059D1207803284FD1607900284CD000208E
:1048E000E0624FF40072002104F13000FFF714FE83
:1048F000552184F82E12AA2184F82F12522084F810
:1049000030005221312001556121322001554121D1
:1049100033200155722184F8141284F815124121B4
:1049200084F81612612184F81712217C84F8181279
:10493000208A010A84F819122069010C84F81A12DD
:104940002069010E84F81B12217B84F81C12A089B7
:10495000010A84F81D12E068010C84F81E12E06858
:10496000010E84F81F126078012304F1300162699E
:10497000FEF78BFF00206071607800221146FEF781
:1049800058FF00B10125284670BD00002DE9F04117
:1049900005460C460226A8191FFA80F8A81B87B204
:1049A000BC4201DD012000E00020444501DA012184
:1049B00000E00021084020B14FF400710848FCF7E6
:1049C00085FABC4209DA0420FCF7D0FB4FF4FA70F8
:1049D000FEF7BCFD0420FCF7F3FBBDE8F08100000E
:1049E000001C014070B504460D4624B1207810B17A
:1049F000E088A84201D0092070BD6078FEF734FF3E
:104A000000F0010008B10320F6E70020F4E7000001
:104A1000304A00080000002064000000742D0008E7
:104A2000944A0008640000205C190000842D0008EE
:104A30000000000000000000000000000000000076
:104A40000000000000000000000000000100000065
:104A50000000000002000000000000000000000054
:104A600000000000000000002A000000000000001C
:104A70000000000000000000010203040102030422
:104A800006070809020406080000000000000000F4
:044A90000000000022
:0400000508000131BD
:00000001FF
