:020000040800F2
:10000000D8070020D9100008F5010008F701000802
:10001000FB010008FF0100080302000800000000C7
:1000200000000000000000000000000007020008BF
:1000300009020008000000000B0200080D02000881
:10004000F3100008F3100008F3100008F310000884
:10005000F3100008F3100008F3100008F310000874
:10006000F3100008F3100008F3100008F310000864
:10007000F3100008F3100008F3100008F310000854
:10008000F3100008F3100008F3100008F310000844
:10009000F3100008F3100008F3100008F310000834
:1000A000F3100008F3100008F3100008F310000824
:1000B000F3100008F3100008F3100008F310000814
:1000C000F3100008F3100008F3100008F310000804
:1000D000F3100008F3100008F3100008F3100008F4
:1000E000F3100008F3100008F3100008F3100008E4
:1000F000F3100008F3100008F3100008F3100008D4
:10010000F3100008F3100008F3100008F3100008C3
:10011000F3100008F3100008F3100008F3100008B3
:10012000F3100008F3100008F3100008F3100008A3
:1001300000F002F800F04FF80AA090E8000C8244AA
:100140008344AAF10107DA4501D100F044F8AFF287
:10015000090EBAE80F0013F0010F18BFFB1A43F0A5
:1001600001031847142C0000342C0000103A24BF5F
:1001700078C878C1FAD8520724BF30C830C144BF0C
:1001800004680C607047000000230024002500264E
:10019000103A28BF78C1FBD8520728BF30C148BFEA
:1001A0000B607047662902F09585002070471FB5E7
:1001B0009DE8030001F06EFF01F0FEFA040000204C
:1001C000002102F071FDE06001F008FC1FBD10B5D8
:1001D00001F06DFC10BD01F0D5FC1146FFF7E7FF03
:1001E00000F031F801F0C4FE03B4FFF7F0FF03BCE8
:1001F00002F0E2F8704700BFFEE700BFFEE700BF75
:10020000FEE700BFFEE77047704770477047000089
:1002100008B51020ADF8000000208DF803006946F5
:100220003D4800F0B9FA08BD10B54FF4804000F029
:1002300053F90121084600F0DEF901214FF4047062
:1002400000F0E6F910BDFFF7EFFFFFF7E1FF3348DD
:1002500000F0F0FB32483349086033484860002022
:1002600088600120C8600020086148614FF48070F8
:1002700088618000C8612020086200024862002076
:100280008862264800F078FC0121244800F09FFC99
:100290000020264908600120087148714FF4602051
:1002A00088600020C860012008741D484C3800F0A8
:1002B00012FD052301220E2119484C3800F0A3FD40
:1002C000012117484C3800F03DFD012114484C38FD
:1002D00000F02DFD12484C3800F04BFD00BF1048D7
:1002E0004C3800F04BFD0028F9D10D484C3800F097
:1002F0004FFD00BF0A484C3800F04FFD0028F9D1EF
:10030000012107484C3800F052FD04E006480188FE
:1003100007A000F0F1FFF9E70010014008000240DB
:100320004C2401404C000020000000203800002038
:1003300025660A00DF48006840F00100DD490860DA
:1003400008464068DC490840DA49486008460068C9
:10035000DA490840D74908600846006820F4802040
:1003600008600846406820F4FE0048604FF41F0013
:1003700088607047CF49096821F48031CD4A116007
:100380001146096821F480211160B0F5803F03D047
:10039000B0F5802F0ED106E0C649096841F48031DE
:1003A000C44A116007E0C349096841F4A021C14A69
:1003B000116000E000BF00BF704710B50146002289
:1003C000002300204A11012A02D1BA4C236806E01A
:1003D000022A02D1B74C236A01E0B64C636A01F0ED
:1003E0001F02012494401C400CB1012000E00020B9
:1003F00010BD38B5002000900024002500BF31203A
:10040000FFF7DBFF05460098401C00900098B0F510
:10041000A06F01D0002DF2D03120FFF7CEFF08B140
:10042000012400E00024204638BD01460020A14AF6
:10043000106820F0F80040EAC10010607047A04941
:1004400008607047024600209A4B586820F47C10E0
:1004500042EA01031843974B586070479849086671
:10046000704701460020934A506820F0030008437B
:10047000506070478F48406800F00C00704701469C
:1004800000208C4A506820F0F0000843506070470C
:1004900001460020874A506820F4E060084350601D
:1004A000704701460020834A506820F4605040EABB
:1004B000C1005060704729B17E4A527A02437D4B99
:1004C0005A7204E07B4A527A82437A4B5A727047DE
:1004D0007B49D8310860704701460020754A506852
:1004E00020F440400843506070470021714A203298
:1004F0001170704A82F82010012802D004280AD115
:1005000004E001216B4A2032117005E00521694A9F
:100510002032117000E000BF00BF704769490860D9
:1005200070476449096A0143624A1162704765492C
:1005300044390860704730B50021002200240023B0
:100540005C4D6D6805F00C0121B1042905D0082926
:1005500023D105E05C4D056022E05B4D05601FE0A6
:10056000544D6D6805F47012524D6D6805F4803479
:10057000022505EB92421CB9544D554305600BE032
:100580004C4D6D6805F400351DB1504D5543056067
:1005900002E04D4D5543056002E04B4D056000BF44
:1005A00000BF444D6D6805F0F0010909484D6B5CD2
:1005B0000568DD4045603F4D6D6805F4E061090A5E
:1005C000434D6B5C4568DD4085603A4D6D6805F4D0
:1005D0006051C90A3E4D6B5C4568DD40C560354DD4
:1005E0006D6805F44041890B3A4D6B5CC568B5FBFD
:1005F000F3F5056130BD29B12E4A526902432D4BF6
:100600005A6104E02B4A526982432A4B5A6170476F
:1006100029B1284A92690243264B9A6104E0254A8F
:1006200092698243234B9A61704729B1214AD2696A
:100630000243204BDA6104E01E4AD26982431D4B1B
:10064000DA61704729B11B4AD2680243194BDA605C
:1006500004E0184AD2688243164BDA60704729B129
:10066000144A12690243134B1A6104E0114A1269D9
:100670008243104B1A617047124940390860704735
:100680000F49C86470470B49C87170470948406AF0
:1006900040F0807007494862704701460020054AD3
:1006A00092680A400AB1012000E000207047014929
:1006B00088727047001002400000FFF8FFFFF6FE4E
:1006C000000042428004424200127A0000093D00CC
:1006D000020000201200002010B50446CC488442DD
:1006E00008D101210420FFF7ADFF00210420FFF70E
:1006F000A9FF46E0C748844208D101210820FFF73E
:10070000A1FF00210820FFF79DFF3AE0C248844284
:1007100008D101211020FFF795FF00211020FFF7DD
:1007200091FF2EE0BD48844208D101212020FFF72F
:1007300089FF00212020FFF785FF22E0B84884428E
:1007400008D101214020FFF77DFF00214020FFF765
:1007500079FF16E0B348844208D101218020FFF7D9
:1007600071FF00218020FFF76DFF0AE0AE48844250
:1007700007D101218015FFF765FF0021A015FFF7C4
:1007800061FF10BD10B501210846FFF75BFF002196
:100790000120FFF757FF10BD2DE9F041024600256B
:1007A0000026002000230024002791F803C00CF04D
:1007B0000F0591F803C00CF0100CBCF1000F03D032
:1007C00091F802C04CEA050591F800C0BCF1000F99
:1007D00031D0146800202BE04FF0010C0CFA00F32C
:1007E000B1F800C00CEA03069E4220D183004FF00E
:1007F0000F0C0CFA03F7BC4305FA03FC4CEA0404A3
:1008000091F803C0BCF1280F06D14FF0010C0CFA8F
:1008100000FCC2F814C00AE091F803C0BCF1480F14
:1008200005D14FF0010C0CFA00FCC2F810C0401CBE
:100830000828D1D31460B1F800C0BCF1FF0F34DD3B
:10084000546800202EE000F1080C4FF0010808FA6F
:100850000CF3B1F800C00CEA03069E4221D18300DC
:100860004FF00F0C0CFA03F7BC4305FA03FC4CEAFB
:10087000040491F803C0BCF1280F05D100F1080C65
:1008800008FA0CF8C2F8148091F803C0BCF1480FC4
:1008900007D100F1080C4FF0010808FA0CF8C2F873
:1008A0001080401C0828CED35460BDE8F0814FF67C
:1008B000FF710180022181700421C17070470246DE
:1008C000002093680B400BB1012000E0002070472E
:1008D0000146886880B2704702460020D3680B400A
:1008E0000BB1012000E0002070470146C86880B2CB
:1008F000704701617047416170470AB1016100E0D2
:1009000041617047C16070474FF480320A43826191
:100910008161826182698269704702460020434B8F
:1009200018684FF68073184040EA021008433F4BA6
:10093000186070473E49C8617047F0B50A46002309
:1009400000240021002500F00046B6F1004F02D13E
:10095000364EF16901E0354E7168C0F3034583B24C
:1009600000F44016B6F5401F08D121F070612F4EFB
:10097000766826F070662D4F7E6012E000F48016D7
:10098000B6F5801F06D1032606FA05F4A14341F00F
:10099000706106E0460D360103FA06F6B14341F0F8
:1009A000706122B1460D360103FA06F6314300F0BC
:1009B0000046B6F1004F02D11C4EF16101E01B4E22
:1009C0007160F0BD30B500228B071C0F0F2303FAB6
:1009D00004F2164B08338C1053F824309343134C15
:1009E00008348D1044F8253023468C1053F82430F9
:1009F0008C07240F00FA04F423430C4C08348D10A8
:100A000044F8253030BD0A49DC31086070470000E9
:100A100000080140000C014000100140001401409A
:100A200000180140001C014000200140000001406E
:100A30000000204201684FF6FE7211400160002163
:100A4000016041608160C1608D49884208D18C4954
:100A50000839496841F00F01894A083A51608AE033
:100A600087491431884208D185490839496841F0DD
:100A7000F001834A083A51607DE08149283188427B
:100A800008D17F490839496841F470617C4A083AC5
:100A9000516070E07A493C31884208D17849083980
:100AA000496841F47041764A083A516063E07449FC
:100AB0005031884208D172490839496841F470219F
:100AC0006F4A083A516056E06D496431884208D156
:100AD0006B490839496841F47001694A083A516024
:100AE00049E067497831884208D165490839496841
:100AF00041F07061624A083A51603CE061498842C5
:100B000006D1011F096841F00F01021F116032E098
:100B10005C491431884208D15A49091F096841F0DB
:100B2000F001584A121F116025E0564928318842C9
:100B300008D15449091F096841F47061514A121FD4
:100B4000116018E04F493C31884208D14D49091FD6
:100B5000096841F470414B4A121F11600BE049498A
:100B60005031884207D14749091F096841F4702173
:100B7000444A121F1160704710B50022026847F600
:100B8000F0739A430C6A8B6823430C6923434C69C6
:100B900023438C692343CC6923434C6A23438C6AE7
:100BA00023431A430260CB6843600B6883604B6841
:100BB000C36010BD0021016041608160C1600161BE
:100BC00041618161C161016241628162704721B10D
:100BD000026842F00102026004E002684FF6FE7310
:100BE0001A40026070471AB103680B43036002E0C9
:100BF00003688B4303607047416070470146486853
:100C000080B2704701460020002201F080531BB1E2
:100C10001C4B083B1A6802E0194B083B1A6802EAB1
:100C200001030BB1012000E00020704700F080516B
:100C300019B11449091F086002E0114908394860D8
:100C4000704701460020002201F080531BB10D4B7C
:100C5000083B1A6802E00A4B083B1A6802EA0103E3
:100C60000BB1012000E00020704700F0805119B165
:100C70000449091F086002E00149083948607047CB
:100C8000080002400804024010B50446FA488442B5
:100C900008D101214015FFF7D5FC00216015FFF7B1
:100CA000D1FC17E0F548844208D101210015FFF777
:100CB000C9FC00212015FFF7C5FC0BE0F048844279
:100CC00008D10121C803FFF7BDFC00214FF400400B
:100CD000FFF7B8FC10BD30B5024600200023506875
:100CE000E84C20400D790C6844EA0524204350600C
:100CF0009068E54C2040D1E902542C434D7944EAF8
:100D0000450420439060D06A20F470000C7C641E7F
:100D1000E4B2234340EA0350D06230BD00210160B9
:100D2000017141718160C16001210174704721B17D
:100D3000826842F00102826003E0826822F00102D0
:100D40008260704721B1826842F48072826003E061
:100D5000826822F480728260704710B50023CBB2A3
:100D60001AB144681C43446002E044689C434460F8
:100D700010BD816841F00801816070470146002084
:100D80008A6802F008020AB1012000E000207047E2
:100D9000816841F0040181607047014600208A6843
:100DA00002F004020AB1012000E00020704721B1E6
:100DB000826842F4A002826003E0826822F4A0020A
:100DC00082607047014600208A6802F480020AB1FE
:100DD000012000E00020704710B50A4600210023E2
:100DE000416821F46041531E41EA4331416010BD26
:100DF00021B1426842F40062426003E0426822F49A
:100E0000006242607047F0B504460D4600200021A4
:100E1000092D11DDE068A5F10A0606EB4607072655
:100E200006FA07F18843A5F10A0606EB460603FA1F
:100E300006F10843E0600CE0206905EB4507072652
:100E400006FA07F1884305EB450603FA06F1084365
:100E50002061072A0FDA606B561E06EB86071F26F5
:100E600006FA07F18843561E06EB860605FA06F1D8
:100E70000843606322E00D2A0FDA206BD61F06EBD1
:100E800086071F2606FA07F18843D61F06EB86065B
:100E900005FA06F10843206310E0E06AA2F10D06AE
:100EA00006EB86071F2606FA07F18843A2F10D0616
:100EB00006EB860605FA06F10843E062F0BD21B1B3
:100EC000826842F48012826003E0826822F4801219
:100ED000826070470146C86C80B2704766484C30EB
:100EE0000068704721B1426842F48062426003E0CA
:100EF000426822F480624260704721B1426842F445
:100F00008052426003E0426822F48052426070479F
:100F10000A460021816821F4E04111438160704755
:100F200021B1826842F40042826003E0826822F4C8
:100F300000428260704721B1826842F402128260EE
:100F400003E0826822F402128260704701460020AA
:100F50008A6802F400120AB1012000E00020704704
:100F6000F0B504461546002000220026092911DDAF
:100F7000E068A1F10A0707EB470C072707FA0CF214
:100F80009043A1F10A0707EB470703FA07F2104362
:100F9000E0600CE0206901EB410C072707FA0CF236
:100FA000904301EB410703FA07F210432061A06B65
:100FB000C0F30156EF1C06F1010CA7EB0C0707EB81
:100FC000870C1F2707FA0CF29043EF1C06F1010C67
:100FD000A7EB0C0707EB870701FA07F21043A063A2
:100FE000F0BD10B50A4600210023816B21F44011A9
:100FF000531E41EA0351816310BD08B500230093DD
:101000000090009B0B440093009B1A6008BD08B53C
:10101000024600200090009201F12800009B184435
:1010200000900098006880B208BD0A46002141681F
:10103000164B19401143416070474162826270470C
:101040000A460021416821F01F01114341607047A9
:1010500040B109490831096841F40001064A0832E3
:10106000116007E004490831096821F40001024ACF
:101070000832116070470000002401400028014040
:10108000003C0140FFFEF0FFFDF7F1FFFFFD3FFFD9
:101090000246002013680B400BB1012000E0002045
:1010A0007047CA430260704770B5024600200023B3
:1010B00000240B125568CEB205EA060415681D40DF
:1010C00015B10CB1012000E0002070BD00220A1211
:1010D000D343036070470000094880470948004730
:1010E000FEE7FEE7FEE7FEE7FEE7FEE7FEE7FEE7D8
:1010F000FEE7FEE704480549054A064B7047000035
:10110000F711000831010008D8010020D80700209D
:10111000D8030020D80300200CB5002001900090D7
:101120006C48006840F480306A49086000BF694834
:10113000006800F4003000900198401C0190009875
:1011400018B90198B0F5A06FF1D16248006800F4B9
:10115000003010B10120009001E0002000900098C4
:10116000012843D15C48006840F010005A490860EB
:101170000846006820F0030008600846006840F058
:101180000200086053484068524948600846406879
:1011900048600846406840F48060486008464068FF
:1011A00020F47C1048600846406840F4E81048602D
:1011B0000846006840F08070086000BF454800683D
:1011C00000F000700028F9D04248406820F0030089
:1011D000404948600846406840F00200486000BF4F
:1011E0003C48406800F00C000828F9D10CBD10B54F
:1011F000FFF792FF10BD10B53648006840F00100BF
:10120000344908600846406834490840314948601C
:1012100008460068324908402E49086008460068C0
:1012200020F4802008600846406820F4FE004860F2
:101230004FF41F008860FFF7DAFF4FF00060294984
:10124000086010BD10B5002100200022214B5B6812
:1012500003F00C0121B1042906D0082928D107E0A8
:10126000214B224C236027E01F4B204C236023E0BE
:10127000184B5B6803F47010164B5B6803F4803204
:10128000022303EB904022B9194B4343174C2360D0
:101290000DE0104B5B6803F4003323B1144B434360
:1012A000124C236003E0104B4343104C236003E0D7
:1012B0000D4B0E4C236000BF00BF064B5B68C3F3B1
:1012C00003130C4CE15C094B1B68CB40074C2360BB
:1012D00010BD000000100240002002400000FFF896
:1012E000FFFFF6FE08ED00E000127A001800002073
:1012F00000093D001C0000200FB4044910B503AAEA
:10130000029800F047FA10BC5DF814FBCC000020F6
:101310002DE9F0410E460446002020622046E16897
:10132000884730B3252805D0D4E901219047206AA9
:10133000401CF2E7E168204600278847050018D0E6
:10134000A5F14100192802D820354FF40067324634
:10135000294620462760FEF725FF40B1012804D02A
:10136000F61D26F007060836D8E7361DD6E72846CC
:10137000DAE7206ABDE8F081704770477047704730
:101380002DE9FF4F0C461E464FF0FF378BB0D2E9D8
:101390000001DDF860800A908A46C1F30A5505B95C
:1013A0003D46002108464FF00000BAF1000F00F45E
:1013B000400005DA00EB80004FF4400101EA5000E4
:1013C0004FEA9059B9F1010F00DDB9460A9850EA89
:1013D0004A000ED044F61050A5F2FF3545432F14B5
:1013E000B8F1000F1ED07542291E1EDDC9F10002A2
:1013F0001CE0B8F1010F4FF0000001D0302103E0F4
:10140000F24305E02154401CB042FBDB3046002291
:10141000002121540B99C1F80880C1E900200FB0C8
:10142000BDE8F08FBD1B6D1CDEE74A4600DA69425D
:1014300006A800F063FA06AB93E8070003AB83E865
:10144000070050460A9901F053F88DE80700A0F50F
:1014500000501F3800900398002D09DD42F21F0153
:101460004A46084403A90390684601F0B2FA08E02E
:10147000A0F500504A461F3803A90390684601F0C2
:10148000BCFA8DE807000004000C03D04FF0FF30D9
:10149000410800E01046B8F1000F03D0002200928E
:1014A00015461EE0751E05D400F08AF930326255EB
:1014B0006D1EF9D5B3460122084302D000227F1CDD
:1014C00004E02078302801D100227F1E002A0997ED
:1014D00086D01DE0112D07DA00F072F93032625526
:1014E0006D1C50EA0102F5D1084302D00098C8B142
:1014F0000EE00021681E05E0235C625C6354225408
:10150000401E491C8142F7DBAB46A81B401E0990D8
:10151000002004F80B000B98099AC0F80880C0E975
:10152000002B7CE711264FF0000859E72DE9F04F1A
:1015300088460446D21D22F0070191B0D1E900018E
:10154000CDE90A0101F08FFB02460B98C00F01D0D4
:101550002D2007E02068810701D52B2002E0202103
:1015600001EAC000032A099001D0072A05DB0346DF
:101570004146204600F082F909E12078800601D535
:10158000E06900E00620B8F1650F814606D0B8F1A9
:10159000660F18D0B8F1670F70D131E00020B9F1B3
:1015A000110F009001DB112301E009F101030AAAE8
:1015B00001A90CA8FFF7E4FEDDE90C70002609F193
:1015C0000105834647E001204B4600904FF000475D
:1015D0000AAA01A90CA8FFF7D3FEDDE90DB00C990A
:1015E0005D46002610B909F101000D18B9EB0500A0
:1015F00003D4C0F1FF3609F10105A5EB09002BE08A
:10160000B9F1010F01DA4FF001090020B9F1110F12
:101610000090484601DD112300E003460AAA01A913
:101620000CA8FFF7ADFEDDE90C704D4600268346A1
:10163000207800070AD4AB4500DA5D4601A8012DE9
:1016400004DD411911F8011C302907D04F4502DA99
:1016500017F1040F04DA012082460FE06D1EEEE759
:10166000002F02DCED1B3E4403E0781CA84200DDA5
:101670007D1CB81B00F1010A4FF0004720780007DD
:1016800003D4AA4501DB4FF0FF3A0021B7F1004F28
:101690000DF143088DF8431022D002202B23002F98
:1016A00001DA7F422D234FF00A0C011EA0F1010048
:1016B00000DC47B197FBFCF10CFB11720F46303296
:1016C00008F8012DF1E7A8F1010003702188090550
:1016D00001D5452100E06521A0F1010800F8011CB9
:1016E00009980FA9A1EB0807FF1D00B101204119BE
:1016F00001EBEA70A1693844081A401EA061207805
:10170000C00602D42046AFF30080099828B1D4E97E
:1017100001219047206A401C20622078C00622D513
:101720002046AFF300801EE0002E04DBB34502DD4F
:1017300001A8805D00E03020D4E901219047206AB3
:10174000401C2062761CAAF101005FEA000A0AD15F
:1017500000F032F8C0680168405CD4E9012190478C
:10176000206A401C2062281EA5F10105DCDC07E090
:10177000D4E9012118F8010B9047206A401C20622F
:10178000381EA7F10107F3DC2046AFF300800220EA
:1017900011B045E6074B70B50D467B4400F05BF891
:1017A0000446284600F016F910B14FF0FF3070BD26
:1017B000204670BDF11400000048704794010020DD
:1017C00030B5B0F10A024FEA900E71F100034EEA13
:1017D000817EB0EB0E0061EB91014FEA101E4EEAE4
:1017E000017E10EB0E0041EB11114FEA102E4EEA74
:1017F000016E10EB0E0041EB11214FEA104E4EEA44
:10180000014E10EB0E0041EB1141401841F1000177
:101810004FEAD00040EA41704FEAD10110EB800559
:101820004FEA810444EA907444EB01046D1944EBDF
:101830000404521BA3414FF0000348BF0A3200D5F5
:1018400030BD401C41F1000130BD000001694A1C5F
:1018500002610878704700B58FB0CDE901310021F1
:10186000059105497944CDE9031011466846FFF713
:101870004FFD0FB000BD0000E5FFFFFF2DE9F04177
:101880001F46044603260168072A01F4006004DBB2
:1018900008B116A505E016A503E008B115A500E0FE
:1018A00015A521F010002060A069C01EA0610FB135
:1018B000401EA0612046AFF300804FB1D4E9012162
:1018C00038469047206A401C2062C01C206206E017
:1018D000206AFAE7D4E9012115F8010B9047761E3A
:1018E000F8D22046AFF30080BDE8F0814E414E00B3
:1018F0006E616E00494E4600696E66002DE9F04744
:10190000814616468AB0324878440DC88DE80D00ED
:101910002F487844801C03AC0DC884E80D0041F6C4
:101920009B303722014491FBF2F0A0F1800502FBCD
:1019300010141B3C02D56442012000E00020DFF8B7
:1019400090A080460027FA44AAF1BA0A0DE0E00709
:1019500009D03246684607EB47010AEB810101F0E6
:101960004CF88DE8070064107F1C002CEFD1184F55
:101970007F44A83F18E0E80714D007EB04100DF1EE
:10198000180A90E80E008AE80E00C068F04201D103
:1019900098190890324606A903A801F02EF803AB67
:1019A00083E807006D10641C002DE4D132466946BF
:1019B000B8F1000F03A802D001F00BF801E001F02C
:1019C0001CF8C9E90001C9F808200AB0BDE8F08791
:1019D00048140000007B00F08000704710B54248BA
:1019E000542100F0D2FA4148542100F0CEFA404888
:1019F000542100F0CAFA3F493B483C4A3F4B08603B
:101A00003D490A603A491960531C0365481C10653A
:101A1000012008653B48344A39A1784400F00CFAAB
:101A200020B9384878440A3800F0A8FA37482F4AD5
:101A300035A1784400F000FA20B9344878440A38D7
:101A400000F09CFA32482A4A2FA1784400F0F4F9B9
:101A500020B92F4878440A3800F090FA40232248F1
:101A6000DC000021224600F0C4F920B1254878446A
:101A7000543800F083FA1D4822464023002100F02C
:101A8000B8F920B121487844543800F077FA184862
:101A900022461023002100F0ACF9002806D01C4893
:101AA0007844BDE81040563800F068BA10BD1048C0
:101AB00070B5006D20F001040B4800F033FA0B48BC
:101AC00000F030FA0A4800F02DFA09E0206D20F00D
:101AD0000105204600F026FA204600F078F82C4652
:101AE000002CF3D170BD000078000020CC00002055
:101AF000200100202C0000203000002034000020B5
:101B0000720000004E130000770000003A1300003E
:101B1000261300000EB5CDE9000100F02DFC029067
:101B200069460120ABBE0EBD08B569460090022093
:101B3000ABBE08BD1FB58DE8070069460520ABBEEA
:101B400004B010BD1FB58DE80F0069460620ABBE7E
:101B5000F6E708B5694600900920ABBE08BD1CB584
:101B6000CDE9000169460A20ABBE1CBD704708B52F
:101B7000694600900C20ABBE08BD000000487047CD
:101B8000740100207546FFF7F9FFAE46050069466F
:101B9000534620F00700854618B020B5FFF7AAFA93
:101BA000BDE820404FF000064FF000074FF000085E
:101BB0004FF0000B21F00701AC46ACE8C009ACE8DF
:101BC000C009ACE8C009ACE8C0098D46704770B5E3
:101BD0000446051F00F042FA0068002C14BF446858
:101BE00070BD002C18BFAC423CBF20466468F8D3DF
:101BF00001680A18AA4218BF456003D12A68054641
:101C00001144016028684119A1421CBF6C6070BD7D
:101C10006168696021680844286070BD2DE9F0475B
:101C200005460C46C86820F4201040F48000C860C7
:101C3000800602D5084600F05EFBE06841F28201B2
:101C40004FF0FF390140022903D0204600F0FCFA92
:101C5000B5E000F42041B1F5004F0FD1C00306D527
:101C60006168E06A884200D80846606006E0206942
:101C7000E06260606069FFF77AFFA061A0680022FF
:101C8000EEB200280DDAE1688B050AD4C043A060EB
:101C900041F490302260E0606068411C6160067031
:101CA000A5E0E0689046226040F40050E0602069C2
:101CB00068BB6069FFF74DFF012704F12405A0B15F
:101CC000A08910F4407F08D0E06900F012FA20618A
:101CD00018B1E06840F4006016E0E7612561E06853
:101CE00020F4407040F480600EE0E06900F001FAFA
:101CF00000282061F1D0E06840F4006010F4407FDB
:101D0000E06002D140F48070E06020696060E068CB
:101D100025696FF0010AC1051FD56168E06A884234
:101D200000D80846411B04D02246284600F096FA07
:101D3000F0BBE068010203D5E562C4E9015854E054
:101D4000691CE1626160E16940F48030491EC4E9C8
:101D5000021030462E70BDE8F087010202D500F473
:101D600080320AE06068411C61600670E0680A2EFB
:101D700040F48030E06006D00022E16A6068814271
:101D800003D90B4602E00122F7E70346A7895B1B54
:101D90007F0503D4E7699F4200DDE2B1814200D8AC
:101DA0000146E5620F1AC4E90158002B09DD00E085
:101DB00005E022461946284600F050FA08B1484688
:101DC000C9E747B1A069E5626560C01BA061E06832
:101DD00040F01000E060E068000208D56168A0698A
:101DE000E562491B08446560A0615046B3E7304690
:101DF000B1E770B5C468A50713D0650211D4B2F578
:101E0000807F09D0B2F5007F06D0B2F5806F08D18F
:101E1000012300F1240106E05D1E6FF07F46B5420C
:101E200001D3012070BD0161C361416024F4706180
:101E30001143C160002070BD2DE9F0410C460746FA
:101E40001646104600F06EF82078611C61280AD012
:101E5000722802D077283CD102E00125002405E059
:101E60000225042402E0082448F2020511F8010BBF
:101E70002B2806D0622809D011F8010C74280AD04A
:101E80000BE045F0030544F00204EFE745F00405DC
:101E900044F00104EAE744F0100438462146FFF715
:101EA00039FE411C15D00021316171604FF4007181
:101EB000F560F1617061200704D5304602220021EF
:101EC00000F046F9306D40F0010030653046BDE865
:101ED000F0810020FBE72DE9F0410D460646104C4D
:101EE000206DC10704D0410804D020F00104F7E7B9
:101EF00022460EE0542000F0FCF807000ED0206DC2
:101F000047F00101084354212065384600F03DF8B0
:101F10003A4629463046BDE8F0418DE70020D6E735
:101F2000780000202DE9F04704464FF000094FF0FB
:101F3000FF37C568D4E90486A80707D0204600F01B
:101F4000B7F93046FFF7F0FD002802DA3846BDE861
:101F5000F087280502D54046FFF739FE4C21204680
:101F600000F013F8206D20F0010020654846EEE7F0
:101F70000446AFF300802046FEF736F910B500F0B6
:101F8000E1F9BDE8104000F0D7B94FF0000200B50C
:101F9000134694469646203922BFA0E80C50A0E88C
:101FA0000C50B1F12001BFF4F7AF090728BFA0E83A
:101FB0000C5048BF0CC05DF804EB890028BF40F806
:101FC000042B08BF704748BF20F8022B11F0804F48
:101FD00018BF00F8012B70474FF0013C50F8042B5C
:101FE00051F8043B9A4221D1A2EB0C03934313EA2C
:101FF000CC1317D150F8042B51F8043B9A4215D159
:10200000A2EB0C03934313EACC130BD150F8042B2F
:1020100051F8043B9A4209D1A2EB0C03934313EA13
:10202000CC13DBD04FF00000704700BFD01A01BACC
:10203000B1FA81F101F0180122FA01F0CB40C1F1AF
:102040002001DBB2C0B2C01A2CFA01F3D11A9143BD
:1020500011EAC311E6D1704770470000004870478D
:102060007C010020704770477047704738B50446C0
:102070000A4600206946AFF30080002808BF38BD3B
:1020800002460099204600F0A4F9012038BD012045
:1020900000F0F3B9F8B5AFF30080054600200C4618
:1020A000102000BF0646A819A0420DD93246694645
:1020B0000020AFF30080070008BF00F0DEF90098B1
:1020C000A04218BF0546C419FFF7C8FF05600746C0
:1020D000F01D20F007004619284600F073F9B442BD
:1020E00008BFF8BDA21B31463868BDE8F84000F0D3
:1020F00070B970B50646FFF7B1FF056806F10B0031
:1021000020F00704B4429CBF002070BD2B466A68D3
:10211000BAB11068A04210D304F1080188423CBF54
:102120005068586007D35168101941601168091B45
:10213000016058601460101D70BD13465268002A7B
:10214000E7D121462846FFF791FF0028DED170BD78
:102150002DE9F041044616460D464769007B80078D
:102160002ED03846FFF7F5FC50BB3EB3012E02D00F
:10217000022E25D104E0204600F045F905441DE07B
:102180003846FFF7F4FCE168002841F01001E160F7
:1021900005DA204600F058F80120BDE8F081C903B7
:1021A0000BD56268E16A914200D81146A2691144D8
:1021B0002269891A814200DD08460544002D01DAB2
:1021C0000220EAE7E16A6068E268814206D2910390
:1021D000E06203D522F4003141F01002A669002725
:1021E000AE4213DCE16A814201D90B4600E00346AE
:1021F00003EB060C2369ACEB030CAC4506DD814216
:1022000001D98C4600E084469C4505D1A760276033
:1022100042F02000A5620DE0AD1BE669AE1B8142D5
:10222000A66000D90846C01A281A206058196060B4
:1022300022F0200003490840E060002084F8487044
:10224000ABE70000BFCFD7FFC16821F4001141F018
:102250008001C16000218160016070472DE9F04775
:10226000814614460E464FF0FF383248D56857690C
:10227000054209D03846A169FFF771FC002811DB3F
:102280002C48C0430540E5602B4632464946384657
:10229000FFF750FCA16920F00042B21A1144002857
:1022A000A16103D02046FFF7CFFF4046BDE8F0878D
:1022B00070B504460569C06A6168884200D808465E
:1022C000E16821F42011E160C90312D5A84208D0C9
:1022D0002246411B2846FFF7C1FF10B14FF0FF30E7
:1022E00070BD0020E562C4E90150E06820F4803050
:1022F000E060002070BD10B50446C06820F02000EA
:10230000E060A16AA06988420DD02046FFF7D0FFA7
:10231000E06820F4405040F01000E060A06AA06146
:102320002069E062606044F24001E0688843E06058
:1023300010BD000010000200002801D000F03CB8E1
:102340007047000010B5014602A000F07DF80120A2
:1023500010BD000053494752545245443A2052653B
:102360006469726563743A2063616E2774206F70CC
:10237000656E3A200000000010B5431C02E010F822
:10238000011B71B18107FAD14FF0013202C88C1ADA
:102390008C4314EAC211F9D0C01A0A0603D0C01E39
:1023A00010BDC01A10BD0A0401D0801E10BD090264
:1023B000FCD0401E10BD000001491820ABBEFEE756
:1023C0002600020000210160C0E9011070471020C2
:1023D0007047034640688C46002818BF88423CBFBF
:1023E00003464068F8D318681844884207D00CF1B7
:1023F000030020F00700001D411A521A0146081D73
:102400000A60FFF7E4BB10B50146C268900703D02D
:10241000900607D5886A0AE000F03EF801210160C5
:10242000881E10BD8B69486818440B69C01A91F862
:1024300048301BB191F84910401A10BD1103FCD56A
:102440000028FADD401E10BD70B505460C460A2076
:1024500000E06D1C00F018F835B128780028F8D19C
:1024600002E0641C00F010F814B120780028F8D1C4
:10247000BDE870400A2000F007B810B500F010F871
:10248000BDE81040FFF758BF08B569468DF8000059
:102490000320ABBE08BD0000004870477401002057
:1024A00010B5012805D0002103A0FFF7CDFF0120C2
:1024B00010BD09A1F8E7000053494752544D454D5E
:1024C0003A204F7574206F662068656170206D65D5
:1024D0006D6F7279000000003A2048656170206DD0
:1024E000656D6F727920636F7272757074656400C8
:1024F0005FEA400C08BF91F0000F4FEA8C234FEACF
:10250000C12243EA51514FEA1C5018BF00F5F04078
:102510004FEA300018BF41F000415FEA6C5C00F008
:102520002980BCF1FF3F08BF40F080407047130C8A
:1025300006BF12044FF0100C4FF0000C130E04BF36
:1025400012020CF1080C130F04BF12010CF1040C61
:10255000930F04BF92000CF1020CD30F04BF520082
:102560000CF1010C11464FF00002A0F11F00A0EB8E
:102570000C00704711F0004F08BF704731F0004168
:102580003FF4D5AF0B0C06BF09044FF0100C4FF011
:10259000000C0B0E04BF09020CF1080C0B0F04BF5A
:1025A00009010CF1040C8B0F04BF89000CF1020C23
:1025B000CB0F04BF49000CF1010CCCF12003A0EBC0
:1025C0000C0022FA03F302FA0CF241EA030100F1D3
:1025D0000100704720F07F4C80EA030023F07F4722
:1025E000ACEB070303F57C5300F0004003F1FF035D
:1025F0002DE980494FEA154B09B44FEA144325EA07
:102600000B4E24EA03480FF2042606EB1327490871
:102610003E785FEA320203FB0667C7F5000707FB57
:1026200006F64FEA54374FEAD64606F1020607FB94
:10263000066CCCF1005C4FEA1C472CEA074C07FB08
:1026400006F40CFB06F504EB15464FEA961634BF6C
:1026500000204FF000404FEAD13706FB07FC4FEA5D
:102660001C4C0CFB0BF7D21B03FB0CF761EB0701B7
:102670000CFB0EF7B0EB074072EB17420CFB08F7B0
:1026800034BFA2EB0742B2EB074261EB17414FEABE
:102690000C444FEA910706FB07FC4FEA1C4C0CFB6D
:1026A0000BF7B0EBC74072EB573203FB0CF734BFAC
:1026B000A2EBC742B2EBC74261EB57310CFB0EF7FE
:1026C000B0EBC70072EB57720CFB08F734BFA2EBFC
:1026D000C702B2EBC70261EB5771039F4FEA8161FA
:1026E00041EA921104EBCC044FEAD1374FEA8262FF
:1026F00006FB07FC42EA90124FEA80604FEA1C4C4E
:102700000CFB0BF7D21B03FB0CF761EB07010CFB77
:102710000EF7B0EB074072EB17420CFB08F734BF23
:10272000A2EB0742B2EB074261EB17414FEA8C552F
:102730004FEA910704EB9C2406FB07FC4FEA1C4C74
:102740000CFB0BF7B0EBC74072EB573203FB0CF7F7
:1027500034BFA2EBC742B2EBC74261EB57310CFB6F
:102760000EF7B0EBC70072EB57720CFB08F734BFE3
:10277000A2EBC702B2EBC70261EB577115EB4C2518
:102780004FEA816141EA92114FEA82624FEAD13702
:1027900042EA901206FB07FC44F100044FEA806015
:1027A0004FEA1C4C0CFB0BF7D21B03FB0CF761EB45
:1027B00007010CFB0EF7B0EB074072EB17420CFB66
:1027C00008F734BFA2EB0742B2EB074261EB1741B7
:1027D00015EB1C154FEA813141EA92414FEA8232F2
:1027E00042EA90424FEA80304FEA0C7644F100040E
:1027F00048EA03434EEA0B484FF0000EB2EB080CD8
:1028000071EB030724BF624639464EEB0E0E4FF0C4
:10281000000B0018524149414BEB0B0BB2EB080C7B
:1028200071EB03077BF1000B24BF624639464EEB88
:102830000E0E4FF0000B0018524149414BEB0B0BB1
:10284000B2EB080C71EB03077BF1000B24BF62466F
:1028500039464EEB0E0E51EA020718BF46F001064C
:1028600016EB0E7655F1000254F1000103D5BDE8D8
:102870008901BDE80088BDE88901B619BDE80048B6
:10288000524141EB0101A3F10103704780807F7E3B
:102890007D7C7B7A797877767675747372717170D6
:1028A0006F6E6E6D6C6C6B6A6A6968686766666588
:1028B0006464636362616160605F5F5E5E5D5D5C16
:1028C0005C5B5B5A5A595958585757565655555587
:1028D0005454535352525251515050504F4F4F4EE7
:1028E0004E4D4D4D4C4C4C4B4B4B4A4A4A49494935
:1028F0004848484747474746464645454544444477
:10290000444343434342424242414141002B26D487
:10291000770021D01CB54FEA370703B44FF0100001
:102920004FF010014FF000000FBC0BF1010BBDE8A0
:102930001040BBF1010F08BF5FEA170722BF12F179
:10294000010211F101014FF0004143F1000300F0D9
:10295000004043EA00007047F9D35708DAE746EA37
:10296000064613F1400F4FEA16461FDD13F1200F04
:10297000DFBF16430A46002120335B42C8D0C3F1B3
:10298000200746EA064602FA07F74FEA164646EAE5
:102990000706C3F1200722FA03F201FA07F721FA2A
:1029A00003F14FF0000342EA0702B1E746EA0206EC
:1029B00046EA06464FEA164646EA0106BCBF46EA24
:1029C0000646360C4FF000034FF000024FF00001B6
:1029D0009EE72DE9C048934630B491E8380007C817
:1029E00031EA400C48BF34EA430C03D5FFF7F2FD4F
:1029F000FFF78CFFF0BCBDE800882DE9C048934686
:102A000030B491E8380007C810F0804F08BF13F0C9
:102A1000804F03D100F005F8FFF778FFF0BCBDE868
:102A2000008820F07F4780EA030023F07F4C07EB0B
:102A30000C03A3F57C5300F00040A3F1FE0392F0D9
:102A4000000F00F0B38095F0000F00F077802DE9C3
:102A500001494FEA11404FEA144621EA004800FBC1
:102A600006FC24EA064708FB06F607FB08F800FB0D
:102A700007F718EB06484CEB164C4FEA124B18EBD5
:102A800007484FEA15464CEB174022EA0B4E0BFB6A
:102A900006FC25EA06470EFB06F607FB0EFE0BFBBF
:102AA00007F71EEB064E4CEB164C4FF000061EEBE4
:102AB000074E4CEB174B18EB0B0840F1000018EBDE
:102AC0000E0B58EB000840F100008F1A4FF0000188
:102AD0003CBFC943661B14BFB5EB040C00213CBFCF
:102AE000C943F61B4FEA17444EEA8E0E27EA044507
:102AF0004FEA1C4704FB07622CEA074C05FB07F76B
:102B00000CFB05F604FB0CFC16EB074642EB1742E8
:102B100016EB0C4642EB1C421BEB060658EB02027E
:102B2000414146EA9E0601D5BDE80189B6195241E8
:102B300041EB0101A3F10103BDE801894FEA14450E
:102B40004FEA114724EA054621EA074C05FB07F442
:102B500006FB07F70CFB06F105FB0CFC11EB07412C
:102B600044EB17444FEA124711EB0C4144EB1C4471
:102B700022EA074C05FB07F206FB07F70CFB06F6FB
:102B800005FB0CFC16EB074642EB174216EB0C4616
:102B900042EB1C456A1854F1000148BF7047B61952
:102BA000524141EB0101A3F10103704795F0000F81
:102BB00037D04FEA11424FEA144721EA024624EA8D
:102BC000074C02FB07F106FB07F70CFB06F402FBC0
:102BD0000CFC14EB074441EB17414FEA154714EB8B
:102BE0000C4441EB1C4125EA074C02FB07F506FBB0
:102BF00007F70CFB06F602FB0CFC16EB074645EB51
:102C0000174516EB0C4645EB1C42121951F1000119
:102C100048BF7047B619524141EB0101A3F10103CE
:102C200070474FEA14454FEA114724EA054621EA66
:102C3000074C05FB07F106FB07F70CFB06F24FF00C
:102C4000000605FB0CFC12EB074241EB174112EBAF
:102C50000C4251EB1C4148BF7047921841EB0101F7
:102C6000A3F101037047490050EAC12018BF0420B6
:102C70004A0D18BF40F0010040F2FF72B2EB515F05
:102C800008BF40F00200012808BF052070478A688D
:102C9000002A01DCFEF7C2BF521E8A604A68C0B239
:102CA000531C4B601070704710B500290AD008788B
:102CB000002807D005487844FFF78EF9002801D096
:102CC000002010BD0248784410BD0000E200000062
:102CD000DA000000FEF72ABC02400000000000A05D
:102CE0000000000005400000000000C800000000D7
:102CF0000C4000000000409C000000001940000053
:102D00000020BCBE0000000034400000BFC91B8E84
:102D100000000004B5400000504BCFD06607E2CF62
:102D2000010000006C4100003E8251AADFEEA73492
:102D300001000000D9420000DCB5A0E23A301F9744
:102D4000FFFFFFFFB4450000FD25A0C8E9A3C14F68
:102D5000FFFFFFFFFF3F00000000008000000000B9
:102D6000FF3F000000000080000000003A74740083
:102D70003A7474003A747400B42D00080000002006
:102D8000380000006C010008EC2D0008380000201D
:102D9000A0070000880100081C000000430000009C
:102DA000F8FFFFFF0C0000000E0000000F00000005
:102DB0002E000000000000000000010203040102D8
:102DC00003040607080902040608000000A24A04DA
:102DD00000000000000000000102030406070809CB
:0C2DE000000000000000000000000000E7
:0400000508000131BD
:00000001FF
